:100000000C9438000C9455000C9455000C94550039
:100010000C9455000C9455000C9455000C9455000C
:100020000C9455000C9455000C9455000C945500FC
:100030000C9455000C9455000C9455000C945500EC
:100040000C9455000C9455000C9455000C945500DC
:100050000C9471000C9455000C9455000C945500B0
:100060000C9455000C9455000C9455000C945500BC
:1000700011241FBECFEFD0E1DEBFCDBF12E0A0E064
:10008000B1E0E6E1F6E102C005900D92A431B107BE
:10009000D9F722E0A4E1B2E001C01D92AE31B2076F
:1000A000E1F70E9494060C94CD0A0C9400000E9483
:1000B0009F0087E690E00E945F000C9403019093FC
:1000C000C5008093C40088E98093C1008EE08093CE
:1000D000C20008959091C00095FFFCCF8093C600A8
:1000E00008958F938091C600809300018F91189599
:1000F00094EA9093BC009091BC0097FFFCCF98E7E6
:100100009093BB0094E89093BC009091BC0097FF43
:10011000FCCF1092BB0094E89093BC009091BC007F
:1001200097FFFCCF8093BB0084E88093BC00809154
:10013000BC0087FFFCCF84E18093BC00089510923F
:10014000B90088E48093B80084E08093BC000895EF
:1001500084EA8093BC008091BC0087FFFCCF0895A7
:1001600084E18093BC0008958093BB0084E8809371
:10017000BC008091BC0087FFFCCF089584EC809385
:10018000BC008091BC0087FFFCCF8091BB0008952C
:1001900084E88093BC008091BC0087FFFCCF8091F5
:1001A000BB00089524EA2093BC002091BC0027FFE7
:1001B000FCCF28E72093BB0024E82093BC002091CB
:1001C000BC0027FFFCCF1092BB0024E82093BC00AA
:1001D0002091BC0027FFFCCF611589F0FC01680F5E
:1001E000792F711D94E881918093BB009093BC009E
:1001F0008091BC0087FFFCCFE617F707A1F784E1E9
:100200008093BC000895CF93DF93CDB7DEB76A9794
:100210000FB6F894DEBF0FBECDBF8AE1E5E5F1E091
:10022000DE01119601900D928A95E1F784EA8093A0
:10023000BC008091BC0087FFFCCF88E78093BB00A7
:1002400084E88093BC008091BC0087FFFCCF1092B3
:10025000BB0084E88093BC008091BC0087FFFCCF8A
:10026000FE0131969E01255E3F4F94E88191809377
:10027000BB009093BC008091BC0087FFFCCFE217CD
:10028000F307A1F784E18093BC006A960FB6F89457
:10029000DEBF0FBECDBFDF91CF9108950F931F93A7
:1002A000CF93DF93EC01C058DF4F00E014E8802FBC
:1002B000806B0E94780080E00E94780080E10E94BC
:1002C000780084EA8093BC008091BC0087FFFCCF5B
:1002D00088E78093BB001093BC008091BC0087FF2F
:1002E000FCCF80E48093BB001093BC008091BC00E5
:1002F00087FFFCCFFE01E058F10981918093BB009C
:100300001093BC008091BC0087FFFCCFEC17FD0769
:10031000A1F784E18093BC000F5FEF01C058DF4F6D
:10032000083029F6DF91CF911F910F91089520E0B9
:1003300030E1DC01F9011D923197E9F7FC01F05F32
:1003400020E1DF011D923A95E9F7749630E2DF0172
:100350001D923A95E9F7B39640E051E0DF01BA010A
:100360001D9261507040E1F7DC01A05BBF4F30E5AA
:10037000E1E0F1E001900D923A95E1F7FC01E85CD3
:10038000FE4EDF011D922A95E9F7E852F1401082F6
:100390001182B4961082B29732E010823183B39604
:1003A00011921082EE5EFE4F108280E090E00E947B
:1003B0009007CB010C943A076F927F928F929F9295
:1003C000AF92BF92CF92DF92EF92FF920F931F9363
:1003D000CF93DF93CDB7DEB789EF91E00E9464073A
:1003E000CC5DDF4E8881C452D0418F93CD5DDF4E0E
:1003F0008881C352D0418F938FE691E09F938F9372
:100400000E944E07CE5DDF4E8881C252D0418F934D
:10041000CF5DDF4E8881C152D0418F9386E891E055
:100420009F938F930E944E07CB5BDF4E8881C5540C
:10043000D0411F928F938AE991E09F938F930E94FE
:100440004E07C95BDF4E8881C754D0411F928F93FE
:10045000CA5BDF4E8881C654D0411F928F938DEACC
:1004600091E09F938F930E944E078E010F5E1F4F66
:100470006E012FEEC21AD20A4E013FED831A3FEEF3
:10048000930A0FB6F894DEBF0FBECDBF360180E0F1
:1004900090EF5C01FE017196AE1ABF0A21EDE22ECB
:1004A00021E0F22EC501860D971DF30121913F0138
:1004B0001F922F939F938F93FF92EF920E944E076C
:1004C0000F900F900F900F900F900F906814790479
:1004D00049F75801FCEEAF1AFFEEBF0AE12CF12CF0
:1004E00095EE892E91E0992EF50180819181F2E0BF
:1004F000AF0EB11C9F938F93FF92EF929F928F92BA
:100500000E944E072FEFE21AF20A0F900F900F9001
:100510000F900F900F9030E1E316F10429F784EF6C
:10052000E82E81E0F82EF80181918F011F928F93C0
:10053000FF92EF920E944E070F900F900F900F9036
:100540000C151D0581F788EF91E00E946407DF918B
:10055000CF911F910F91FF90EF90DF90CF90BF90C0
:10056000AF909F908F907F906F9008956F927F9241
:100570008F929F92AF92BF92CF92DF92EF92FF92B3
:100580000F931F93CF93DF93B62E6C0131EFC31AF5
:100590003FEED30AF6011082211509F457C0FC0181
:1005A000E05FFF4E00811181080F191FF0E44F9F9B
:1005B000700111244801820E911CC1E07C2EF801CB
:1005C000A1918F01B0E0A7014B0D511D27E030E054
:1005D000BD01022E02C0759567950A94E2F760FF8F
:1005E00027C0BA0176956795769567957695679554
:1005F000680F792F711DFB01E95CFF4EA080F42F7D
:10060000F7706F2EEA2DF0E0062C02C0F595E79505
:100610000A94E2F7E0FF02C0F6017082FB01E95C98
:10062000FF4E6C2F01C0660F6A94EAF7A626A082DF
:10063000215031094F5F5F4F2F3F320749F620E4C9
:10064000E20EF11C8016910609F0B9CFFC01E95CBD
:10065000FE4E81E08083DF91CF911F910F91FF903B
:10066000EF90DF90CF90BF90AF909F908F907F9052
:100670006F900895EF92FF920F931F93CF93DF93A4
:10068000CDB7DEB72D970FB6F894DEBF0FBECDBF46
:100690008C01DC01AE5EBF4E4D915D91FC01E40F1B
:1006A000F51F80812181E22FF82F7F01BA016E5F53
:1006B0007F4F7E936E93FF70F983E295EF70EB8727
:1006C000EB822E2D2F709F2D80E0907F8115F0E81A
:1006D0009F0709F4B4C0F701FF70EC87FD878130F4
:1006E000F0E89F07B0F4811520E4920709F480C078
:1006F00008F088C08115E0E29E0709F463C008F0A5
:10070000AEC0892B09F4B8C08C859D858D939D93CF
:1007100028C0811530EC930709F4C9C078F1811520
:10072000F0EE9F0709F4F6C0811530EF930709F446
:10073000DEC08115904D09F085C0D8013B85A30F1F
:10074000B11DB05FF8018981E80FF11DF05F4C9198
:100750006081C8010E94B602F801E95CFE4E81E0AA
:1007600080832D960FB6F894DEBF0FBECDBFDF910C
:10077000CF911F910F91FF90EF9008958115F0EAAE
:100780009F0709F4ACC0811530EB930709F49DC0B5
:100790008115904909F056C02111E3CF9801F981E4
:1007A0002F0F311D305F8B85080F111D105FF90170
:1007B0009081F80180819817A1F24C5F5F4F4D93B3
:1007C0005D93CFCF98012C5C3F4EF901808191E081
:1007D000980F9083080F111D080F111D0C5E1F4EFE
:1007E000F801608371832C853D852D933D93B9CFAE
:1007F000E9810E0F111DF801F05F8081FB81F81374
:10080000DCCFAFCF811530E6930709F4ABC081157B
:10081000E0E79E0709F49DC08115904599F4980181
:100820008981280F311D305F9B85090F111D105FD5
:10083000F9019081F8018081981393CFBECF2F30BA
:1008400008F497C0FF92EF928DEF91E09F938F9302
:100850000E944E070F900F900F900F9082CF81153E
:10086000904381F73981030F111DF801F05F8081FA
:100870009B81981376CFA1CF8E2D90E0E0EEEE16FF
:1008800009F492C08E3E9105E9F6F801EC5CFF4E4A
:10089000808181508083080F111D080F111DF80100
:1008A000EC5EFF4E808191818D939D935ACF0E9483
:1008B0003507F9810F0F111DF801F05F9C013078A9
:1008C00097FD5DC02E2120834CCF105FF801808101
:1008D000EC85FD85E80FF11DED93FD9342CFD80126
:1008E000A05FBF4E2C853D852D933D933ACFEE2DD5
:1008F000F0E0E433F1050CF066C0E730F1050CF4EC
:10090000A1CF3797ED32F10508F09CCFE153F54FB9
:100910000C94CF068E2D90E0EEE9EE16A1F1813A0F
:10092000910509F08FCFF8013981E30FF11DF05FD8
:100930008081080F111DF801E85CFE4E81E02081E6
:10094000211130C0880F991F860F971F8D939D939B
:1009500008CF2981020F111DF801F05F80818E0DF3
:100960008083FFCEF9810F0F111DF801F05FE08247
:10097000F8CEE22FF0E0E450F54F0C94CF062A9524
:100980003FEF23959FCFF8012981E20FF11DF05F22
:100990008081080F111DF801E85CFE4E81E0208186
:1009A0002111D0CF80E0CECFF801E95CFF4E80E08E
:1009B00091E0DF019C011D9221503040E1F7FF5F83
:1009C00081E08083CECEE535F10509F482C1E536BC
:1009D000F10509F037CFC801805F9F4E8B839C8360
:1009E000DC010D90BC91A02DAD83BE83F981EF2F6A
:1009F000F0E0E9831A82AF014F5F5F4FBD01600FE6
:100A0000711F40970E9445072D813E812F5F3F4F08
:100A100089819A81280F391FAB81BC812D933D9329
:100A2000A0CED801A15FBF4EE9810E0F111DF801C4
:100A3000F05F808187FB882780F98C938081880F05
:100A400080838FCEB801615F7F4EC8012B85820FF6
:100A5000911DAC01505F3981030F111DD801B05FAA
:100A600021E0FA0130814C91431708F020E0DB01CE
:100A70002C93F801F05FDC01B05F8C919081891BB1
:100A800080836FCED801A15FBF4EE9810E0F111D8B
:100A9000F801F05F808181708C93808186958083DE
:100AA00060CEB801615F7F4EF801B981EB0FF11D97
:100AB000AF01505F2B85020F111D9801305F81E05F
:100AC000DA019C91D9012C91291708F080E0DB0113
:100AD0008C93F05FD801B05F80819C91891B8083EB
:100AE00040CEA801415F5F4EF801A981EA0FF11DD8
:100AF0009F01305FD9018C91BB850B0F111DB8018F
:100B0000705FDB019C91890F9927991F21E091303B
:100B10000CF420E0DA012C93F05FD801B05F808103
:100B20009C91890F80831DCEF8018981E80FF11D0A
:100B3000F05F9B85090F111DD801B05F80819C91EA
:100B4000892780830ECEF8012981E20FF11DF05F25
:100B50003B85030F111DD801B05F80819C918923D3
:100B60008083FFCDF801A981EA0FF11DF05FBB85FD
:100B70000B0F111DD801B05F80819C91892B808360
:100B8000F0CDF8013B85E30FF11DF05F8081998185
:100B9000090F111DF801F05F8083E3CDF801298171
:100BA000E20FF11DF05F2081F801E05FFF4E019040
:100BB000F081E02DE00FF11F822F90E064E670E0FD
:100BC0000E94BB06608389E2289F812D11248295B3
:100BD0008F70922F34E6839F901911248DEC989F8B
:100BE000912D11249695969596959183289F812D08
:100BF0001124869586958695982F990F990F890FC0
:100C0000880F281B2283ADCDD801A05FBF4EF9818C
:100C10000F0F111DF801F05F208130E0C901880F2E
:100C2000991F880F991F820F931F805B9F4F8D9391
:100C30009D9397CDD801A05FBF4E8D919D91129746
:100C4000B801615F7F4EE9810E0F111DA801505F51
:100C5000FA012081AC01420F511D21E0503108F40E
:100C600020E0FB012083F801F05F2081820F911DBD
:100C70008D939D9376CDD801AB5CBF4E9981090FC2
:100C8000111DF801F05F80818C936BCDD801AA5CB7
:100C9000BF4E8981080F111DF801F05F80818C9390
:100CA00060CDF801E85CFE4E9081911136C031961E
:100CB0008F5F8031C9F74D935D9353CDF801298142
:100CC000E20FF11DF05FD801AA5CBF4E8C918083CA
:100CD00048CDF801E05FFF4EEB83FC83208131813A
:100CE0002D833E839981892F90E089831A82AC01FC
:100CF0004F5F5F4FB801705FC901800F911F0E9465
:100D00004507AD81BE811196E981FA81AE0FBF1F03
:100D1000EB81FC81A083B18324CD3981030F111DA8
:100D2000F801F05F80831DCDCDB7DEB7C954D54142
:100D30000FB6F894DEBF0FBECDBF8E01065B1E4E10
:100D400080E094E0F8019C01119221503040E1F7DD
:100D5000CE0101960E9497010E945700C8010E948F
:100D60004E013FEF81EE94E0315080409040E1F73A
:100D700000C00000FFCF97FB072E16F4009407D0A9
:100D800077FD09D00E94D50607FC05D03EF490956A
:100D900081959F4F0895709561957F4F0895EE0F4F
:100DA000FF1F0590F491E02D0994AA1BBB1B51E194
:100DB00007C0AA1FBB1FA617B70710F0A61BB70BCB
:100DC000881F991F5A95A9F780959095BC01CD0170
:100DD00008958F929F92AF92BF92CF92DF92EF923F
:100DE000FF92CF93DF93EC01688179818A819B81A7
:100DF000611571058105910521F464E279ED8BE5BA
:100E000097E02DE133EF41E050E00E94330A4901C1
:100E10005A019B01AC01A7EAB1E40E94520A6B019E
:100E20007C01ACEEB4EFA50194010E94600ADC01E4
:100E3000CB018C0D9D1DAE1DBF1DB7FF03C00197DB
:100E4000A109B04888839983AA83BB839F77DF91E8
:100E5000CF91FF90EF90DF90CF90BF90AF909F9099
:100E60008F9008950E94E906089581E591E00E941F
:100E7000E9060895A0E0B0E08093510190935201FB
:100E8000A0935301B09354010895FB01DC0102C00B
:100E900001900D9241505040D8F70895A0E0B0E085
:100EA000E4E5F7E00C94750AAE014B5F5F4FFA0181
:100EB00061917191AF0180911602909117020E9489
:100EC000A307E2E00C94910A0F931F93CF93DF9353
:100ED000E0911602F0911702238100E010E021FD5D
:100EE0000EC00FEF1FEFC801DF91CF911F910F913F
:100EF00008950995892B11F00FEF1FEFCE01EC013A
:100F000089916091160270911702DB011896ED919C
:100F1000FC918111EECF8AE00995892B21F3E1CF75
:100F2000FC012FB7F89460911A0270911B02809116
:100F30001C0290911D022FBF309721F060837183B6
:100F4000828393830895ABE0B0E0E9EAF7E00C9484
:100F5000660A6C017B018A01FC011782168283817B
:100F600081FFDAC19AE0492EF6012381F70123FDC2
:100F7000859123FF81917F01811509F41FC185327D
:100F800039F423FD959123FF91917F01953229F446
:100F9000B60190E00E94A509E7CF30E0612C512C0A
:100FA000712CF0E27F1640F59B32D9F058F4903264
:100FB000D1F09332F1F09E3299F576FCFFC068943F
:100FC00076F806C09D3291F09033C1F4689470F8C1
:100FD000F70123FD959123FF91917F019111E1CFBD
:100FE00029C0689471F8689472F8F2CF689473F825
:100FF000EFCF689474F8ECCF77FC1CC080ED890FBC
:101000008A30C8F676FE05C0649C800D1124682ED7
:10101000DFCF549C800D1124582E689475F8D8CFDA
:101020009C3619F4689477F8D3CF9C3409F44BC0FC
:10103000983671F2892F8F7D8554833008F445C02E
:10104000933609F466C0933709F469C0933509F4FF
:1010500075C0943619F0993609F09FC0F80177FEF3
:1010600095C061917191819191918F01272D2F767A
:10107000722E97FF09C090958095709561957F4F6E
:101080008F4F9F4F689477F82AE030E0AE014F5FB2
:101090005F4F5A010E94D5098A19A82E76FEC5C055
:1010A000872D8E7FA61408F0BFC074FE12C172FC9B
:1010B00006C1F72DFE7E7F2EB62C872D86788115F2
:1010C00009F4C0C001C131E083CF3115F9F0085FE8
:1010D0001F4F8FE3898388248394912CAE014F5F47
:1010E0005F4F5A01E89477F873FC03C085149104AC
:1010F000B0F181149104D1F5511409F435CFB60142
:1011000080E290E00E94A5095A94F6CF0C5F1F4F31
:10111000E0CFF801808189830E5F1F4FDCCFF8019B
:10112000A190B1908F01662D70E076FC02C06FEF48
:101130007FEFC5010E949A094C01D4CFF801A1901C
:10114000B1908F01662D70E076FC02C06FEF7FEFEB
:10115000C5010E948F094C01689477F8C5CFB6018C
:1011600080E290E00E94A5095A94C0CFF50177FC77
:10117000859177FE81915F01B60190E00E94A509FB
:1011800051105A94F1E08F1A9108B3CF6191719187
:10119000072E000C880B990B68CF372CE89434F895
:1011A0002AE030E0953739F1572D597F352E9037A9
:1011B00099F058F49835A9F09F36D9F0F601868158
:1011C00097812B96E1E10C94820A9837B9F774FC69
:1011D00005C020E130E00FC0689434F8689432F81C
:1011E000F8CF74FE03C0872D8660382E20E132E0F0
:1011F00002C028E030E0F80137FE11C06191719122
:10120000819191918F01FE0131965F01AF010E94A2
:10121000D5098A19A82E732CE89477F83FCF6191ED
:10122000719180E090E0EECF782EBA2C74FE45CF1D
:10123000FE01EA0DF11D8081803309F043C0272DA6
:10124000297E722E73FC0EC070FE4FC06A2CB5143E
:1012500018F4650C6B18B52C852D8B195B1408F4EC
:1012600080E0B80EB51408F042C05B1874FE41C0AF
:10127000B60180E390E00E94A50972FE09C088E5EE
:1012800090E071FC02C088E790E0B6010E94A509D9
:10129000A614D8F1AA94B12C4FEFA41AB40ACE0127
:1012A00001963C01A80EB91EF50182915F01B601BD
:1012B00090E00E94A5096A147B04B1F71DCFB62CFB
:1012C000782EB6CF72FC02C0B394BCCFB394B39463
:1012D000B9CFB62C782EF1CEB60180E290E00E9414
:1012E000A50933943514C0F3B7CF3B2CFBCF512C59
:1012F000BDCF872D8678811559F280E271FC8BE293
:1013000077FC8DE2B60190E0C1CFB60180E390E0BA
:101310000E94A5096A94BCCF8FEF9FEF52CFFC01CA
:101320000590615070400110D8F7809590958E0F10
:101330009F1F0895FC016150704001900110D8F783
:10134000809590958E0F9F1F08950F931F93CF93B5
:10135000DF93182F092FEB018B8181FD09C01FEF4F
:101360000FEF812F902FDF91CF911F910F91089553
:1013700082FF14C02E813F818C819D8128173907FF
:101380003CF4E881F981CF01019699838883108329
:101390008E819F8101969F838E83E3CFE885F985B7
:1013A000812F0995892BA1F3DACFFA01AA272830DA
:1013B00051F1203181F1E8946F936E7F6E5F7F4F22
:1013C0008F4F9F4FAF4FB1E03ED0B4E03CD0670F9E
:1013D000781F891F9A1FA11D680F791F8A1F911DF1
:1013E000A11D6A0F711D811D911DA11D20D009F441
:1013F00068943F912AE0269F11243019305D319383
:10140000DEF6CF010895462F4770405D4193B3E06B
:101410000FD0C9F7F6CF462F4F70405D4A3318F012
:10142000495D31FD4052419302D0A9F7EACFB4E0C3
:10143000A6959795879577956795BA95C9F700977B
:101440006105710508959B01AC010A2E069457951C
:10145000479537952795BA95C9F7620F731F841F73
:10146000951FA01D0895052E97FB1EF400940E9461
:101470004A0A57FD07D00E94AB0A07FC03D04EF47E
:101480000C944A0A50954095309521953F4F4F4F07
:101490005F4F089590958095709561957F4F8F4F20
:1014A0009F4F08950E949C0AA59F900DB49F900D98
:1014B000A49F800D911D11240895B7FF0C94520A2A
:1014C0000E94520A821B930B08952F923F924F92D3
:1014D0005F926F927F928F929F92AF92BF92CF92C4
:1014E000DF92EF92FF920F931F93CF93DF93CDB7CD
:1014F000DEB7CA1BDB0B0FB6F894DEBF0FBECDBF45
:1015000009942A88398848885F846E847D848C8415
:101510009B84AA84B984C884DF80EE80FD800C811E
:101520001B81AA81B981CE0FD11D0FB6F894DEBF01
:101530000FBECDBFED010895A29FB001B39FC001C2
:10154000A39F700D811D1124911DB29F700D811DEF
:101550001124911D0895A1E21A2EAA1BBB1BFD01A7
:101560000DC0AA1FBB1FEE1FFF1FA217B307E40782
:10157000F50720F0A21BB30BE40BF50B661F771FDA
:10158000881F991F1A9469F76095709580959095BA
:101590009B01AC01BD01CF010895F894FFCF5E0619
:1015A00022042204510622042204220422042204DA
:1015B00022042204220422042204460622042204D5
:1015C0003B06220422042204220422041A062204D6
:1015D00022042204220422042204220422042204DB
:1015E00022040406220422042204220422042204E7
:1015F000220422042204CE05C105B205A3059405E8
:101600007105510542052205220422042204220408
:0616100022042204110572
:1016160001F0909090F02060202070F010F080F0A3
:10162600F010F010F09090F01010F080F010F0F044
:1016360080F090F0F010204040F090F090F0F090A4
:10164600F010F0F090F09090E090E090E0F0808064
:1016560080F0E0909090E0F080F080F0F080F080F4
:101666008001000000AED580A83FD300408D142035
:1016760000A1C8DA12817FD9F1DB40A4A62EAF50B3
:10168600726F6772616D20436F756E7465723A2072
:10169600307825580A00496E646578205265676976
:1016A600737465723A2025640A00537461636B2073
:1016B600506F696E7465723A2025640A00536F751F
:1016C6006E642074696D65723A20307825580D4431
:1016D600656C61792074696D65723A203078255899
:1016E600005265676973746572205625643A203026
:1016F6007825580A00537461636B25643A20307864
:1017060025580A00202558000A2D2D2D00556E6BF0
:101716006E6F776E206F70636F64653A2030782540
:04172600580A00005D
:00000001FF
