:100000000C9434000C9449000C9449000C94490061
:100010000C9449000C9449000C9449000C9449003C
:100020000C9449000C9449000C9449000C9449002C
:100030000C9449000C9449000C9449000C9449001C
:100040000C9449000C9449000C9465000C944900F0
:100050000C9449000C9449000C9449000C944900FC
:100060000C9449000C94490011241FBECFEFD8E036
:10007000DEBFCDBF11E0A0E0B1E0E8E7F3E002C0F1
:1000800005900D92AC31B107D9F70E948B010C9409
:10009000BA010C9400000E94930087E690E00E9451
:1000A00053000C94F7009093C5008093C40088E936
:1000B0008093C1008EE08093C20008959091C000AB
:1000C00095FFFCCF8093C60008958F938091C60062
:1000D000809300018F91189594EA9093BC009091C1
:1000E000BC0097FFFCCF98E79093BB0094E89093F7
:1000F000BC009091BC0097FFFCCF1092BB0094E82D
:100100009093BC009091BC0097FFFCCF8093BB0004
:1001100084E88093BC008091BC0087FFFCCF84E121
:100120008093BC0008951092B90088E48093B800D1
:1001300084E08093BC00089584EA8093BC008091A1
:10014000BC0087FFFCCF089584E18093BC00089534
:100150008093BB0084E88093BC008091BC0087FF43
:10016000FCCF089584EC8093BC008091BC0087FF95
:10017000FCCF8091BB00089584E88093BC008091FF
:10018000BC0087FFFCCF8091BB00089524EA209338
:10019000BC002091BC0027FFFCCF28E72093BB00C8
:1001A00024E82093BC002091BC0027FFFCCF1092D4
:1001B000BB0024E82093BC002091BC0027FFFCCFAB
:1001C000611589F0FC01680F792F711D94E8819108
:1001D0008093BB009093BC008091BC0087FFFCCF54
:1001E000E617F707A1F784E18093BC000895CF9349
:1001F000DF93CDB7DEB76A970FB6F894DEBF0FBEB8
:10020000CDBF8AE1E1E0F1E0DE01119601900D92AF
:100210008A95E1F784EA8093BC008091BC0087FF57
:10022000FCCF88E78093BB0084E88093BC0080917A
:10023000BC0087FFFCCF1092BB0084E88093BC0019
:100240008091BC0087FFFCCFFE0131969E01255EA8
:100250003F4F94E881918093BB009093BC008091C4
:10026000BC0087FFFCCFE217F307A1F784E180937E
:10027000BC006A960FB6F894DEBF0FBECDBFDF910B
:10028000CF9108950F931F93CF93DF93EC01C05844
:10029000DF4F00E014E8802F806B0E946C0080E04C
:1002A0000E946C0080E10E946C0084EA8093BC0094
:1002B0008091BC0087FFFCCF88E78093BB00109340
:1002C000BC008091BC0087FFFCCF80E48093BB0022
:1002D0001093BC008091BC0087FFFCCFFE01E0586A
:1002E000F10981918093BB001093BC008091BC0008
:1002F00087FFFCCFEC17FD07A1F784E18093BC00DA
:100300000F5FEF01C058DF4F083029F6DF91CF9122
:100310001F910F910895CDB7DEB7D4500FB6F89462
:10032000DEBF0FBECDBF0E944B0060E070E040E03A
:100330003FEF242F2170FE013196E60FF71F80E07A
:10034000982F9770922B31F431938F5F982F97707D
:10035000922BD1F310828F5F803811F03196F0CF5D
:100360004F5F60587F4F483021F7CE0101960E94C1
:080370004201FFCFF894FFCF1A
:1003780001AED580A83FD300408D142000A1C8DA73
:0C03880012817FD9F1DB40A4A62EAF004B
:00000001FF
