:100000000C9438000C9455000C9455000C94550039
:100010000C9455000C9455000C9455000C9455000C
:100020000C9455000C9455000C9455000C945500FC
:100030000C9455000C9455000C9455000C945500EC
:100040000C9455000C9455000C9455000C945500DC
:100050000C9414010C9455000C9455000C9455000C
:100060000C9455000C9455000C9455000C945500BC
:1000700011241FBECFEFD0E1DEBFCDBF13E0A0E063
:10008000B1E0E6E8F0E202C005900D92A03AB107B7
:10009000D9F723E0A0EAB3E001C01D92AA3AB20763
:1000A000E1F70E94470B0C9405100C9400000E948D
:1000B000420187E690E00E9491000E94A6010C9404
:1000C0003D06CF93DF93D82F89E2D89F812D11244D
:1000D00082958F70805D0E949C009DECD99FC12D00
:1000E0001124C695C695C695C99F912D1124969544
:1000F00096959695892F880F880F890F880F9C2FCA
:10010000981B892F805D0E949C008C2F880F880F80
:100110008C0F880FD81B8D2F805DDF91CF910C94B1
:100120009C009093C5008093C40088E98093C1002F
:100130008EE08093C20008959091C00095FFFCCF9F
:100140008093C6000895FC019081911551F031967D
:100150008091C00085FFFCCF9093C60091919111D2
:10016000F7CF0895FC019081911551F0319680915F
:10017000C00085FFFCCF9093C60091919111F7CFFD
:100180000895FC019081911551F031968091C00045
:1001900085FFFCCF9093C60091919111F7CF80918C
:1001A000C00085FFFCCF8DE08093C6008091C00029
:1001B00085FFFCCF8AE08093C6000895CF93DF933C
:1001C000CDB7DEB761970FB6F894DEBF0FBECDBFD7
:1001D00091E1EAEDF1E0DE01119601900D929A9520
:1001E000E1F7982F92959F70FE013196E90FF11D6E
:1001F00020819091C00095FFFCCF2093C6008F70A6
:10020000FE013196E80FF11D90818091C00085FFBD
:10021000FCCF9093C60061960FB6F894DEBF0FBE78
:10022000CDBFDF91CF9108958F938091C6008093C9
:1002300000018F91189594EA9093BC009091BC00B6
:1002400097FFFCCF98E79093BB0094E89093BC0095
:100250009091BC0097FFFCCF1092BB0094E8909364
:10026000BC009091BC0097FFFCCF8093BB0084E85A
:100270008093BC008091BC0087FFFCCF84E1809319
:10028000BC0008951092B90088E48093B80084E01F
:100290008093BC00089584EA8093BC008091BC00E8
:1002A00087FFFCCF089584E18093BC00089580937C
:1002B000BB0084E88093BC008091BC0087FFFCCF2A
:1002C000089584EC8093BC008091BC0087FFFCCF34
:1002D0008091BB00089584E88093BC008091BC00AD
:1002E00087FFFCCF8091BB00089524EA2093BC00D7
:1002F0002091BC0027FFFCCF28E72093BB0024E817
:100300002093BC002091BC0027FFFCCF1092BB00C3
:1003100024E82093BC002091BC0027FFFCCF61158E
:1003200089F0FC01680F792F711D94E88191809309
:10033000BB009093BC008091BC0087FFFCCFE61708
:10034000F707A1F784E18093BC000895CF93DF9372
:10035000CDB7DEB76A970FB6F894DEBF0FBECDBF3C
:100360008AE1E5E5F1E0DE01119601900D928A95B2
:10037000E1F784EA8093BC008091BC0087FFFCCF4A
:1003800088E78093BB0084E88093BC008091BC0028
:1003900087FFFCCF1092BB0084E88093BC00809163
:1003A000BC0087FFFCCFFE0131969E01255E3F4FCA
:1003B00094E881918093BB009093BC008091BC0035
:1003C00087FFFCCFE217F307A1F784E18093BC001D
:1003D0006A960FB6F894DEBF0FBECDBFDF91CF9106
:1003E00008950F931F93CF93DF93EC01C058DF4F15
:1003F00000E014E8802F806B0E941B0180E00E94C7
:100400001B0180E10E941B0184EA8093BC00809163
:10041000BC0087FFFCCF88E78093BB001093BC0033
:100420008091BC0087FFFCCF80E48093BB001093D9
:10043000BC008091BC0087FFFCCFFE01E058F109B1
:1004400081918093BB001093BC008091BC0087FF1A
:10045000FCCFEC17FD07A1F784E18093BC000F5F90
:10046000EF01C058DF4F083029F6DF91CF911F917F
:100470000F9108950F931F93CF93DF9300D000D077
:10048000CDB7DEB789839A838FEF0E944406082F89
:100490008FEF0E9444068B838FEF0E9444068C836B
:1004A0008FEF0E9444069B81EC815E2FE981FA81E7
:1004B00080835183928303830F900F900F900F904E
:1004C000DF91CF911F910F910895CF932A9A2FEF2B
:1004D00083ED90E3215080409040E1F700C00000A0
:1004E000C4E18FEF0E944406C150D9F72A9A8FEFDA
:1004F000CF910C944406CF93DF938FEF0E94440674
:100500002A988FEF0E94440680E40E94440680E00F
:100510000E94440680E00E94440680E00E94440657
:1005200080E00E94440685E90E944406C9E08FEFFE
:100530000E944406D82F8F3F11F4C150C1F78FEFAE
:100540000E9444062A9A8FEF0E9444068D2FDF9165
:10055000CF910895CF93DF9300D000D00F92CDB705
:10056000DEB789839A836B837C8389E08D838FEFE9
:100570000E9444068F3F81F49D8191509D8391118B
:10058000F6CFE981FA8180830F900F900F900F9042
:100590000F90DF91CF910895E981FA8180838230B5
:1005A00098F78B819C810F900F900F900F900F9078
:1005B000DF91CF910C943A020F931F93CF93DF9367
:1005C000CDB7DEB728970FB6F894DEBF0FBECDBF0C
:1005D0008D839E836F8378878FEF0E9444062A98CD
:1005E0008FEF0E94440688E40E94440680E00E9447
:1005F000440680E00E94440681E00E9444068AEAA4
:100600000E94440687E80E94440619E08FEF0E948A
:1006100044068F3F71F51150C9F7ED81FE8180834B
:100620008FEF0E9444062A9A8FEF0E944406ED81C4
:10063000FE81808182FD27C009811A81412F8115A9
:1006400079F081E00A3A69F080E028960FB6F894D4
:10065000DEBF0FBECDBFDF91CF911F910F910895E7
:1006600081E0EF81F885808311824483158281E0E7
:10067000ECCFED81FE818083823090F6CE01019631
:100680000E943A02CDCF80E090E0AC01EACFCF9358
:10069000DF938FEF0E9444062A988FEF0E94440652
:1006A00087E70E94440680E00E94440680E00E94A2
:1006B000440680E00E94440680E00E94440685E6ED
:1006C0000E944406C9E08FEF0E944406D82F8F3F56
:1006D00011F4C150C1F78FEF0E9444062A9A8FEFA0
:1006E0000E9444068D2FDF91CF910895CF93DF9321
:1006F0008FEF0E9444062A988FEF0E94440689E6F5
:100700000E94440680E40E94440680E00E94440661
:1007100080E00E94440680E00E94440687E70E9431
:100720004406C9E08FEF0E944406D82F8F3F11F492
:10073000C150C1F78FEF0E9444062A9A8FEF0E94A2
:1007400044068D2FDF91CF910895CF93DF9300D092
:1007500000D0CDB7DEB76B837C8389839A838FEF1C
:100760000E9444062A988FEF0E94440680E50E946A
:1007700044068A810E94440689810E9444068C8135
:100780000E9444068B810E94440681E00E94440638
:1007900089E089838FEF0E9444068A838F3F29F482
:1007A0008981815089838111F5CF8FEF0E944406A2
:1007B0002A9A8FEF0E9444068A810F900F900F9023
:1007C0000F90DF91CF910895CF93DF9300D000D0A9
:1007D0000F92CDB7DEB789839A836B837C838FEFCB
:1007E0000E9444062A988FEF0E9444068AE70E94DE
:1007F000440680E00E94440680E00E94440680E0B7
:100800000E94440680E00E94440681E00E94440663
:1008100089E08D838FEF0E9444068F3FB1F49D8164
:1008200091509D839111F6CFE981FA8180838FEFFA
:100830000E9444062A9A8FEF0F900F900F900F900E
:100840000F90DF91CF910C944406E981FA81808367
:10085000823068F78B819C810E943A02E8CFCF9268
:10086000DF92EF92FF921F93CF93DF9300D000D0DF
:1008700000D00F92CDB7DEB78E839F832A9A2FEFD9
:1008800083ED90E3215080409040E1F700C00000EC
:1008900014E18FEF0E9444061150D9F72A9A8FEF86
:1008A0000E944406EFEFF1EE24E0E150F0402040DA
:1008B000E1F700C000000E947B02182F8D838BEEB1
:1008C00091E00E94B200812F0E94DE0080E793E059
:1008D0000E94C10012FDB8C06E817F81CE010596D5
:1008E0000E94DC028115F1F18DE292E00E94B200DB
:1008F0008D810E94DE0080E793E00E94C100FF240A
:10090000FA940FC08FEF90E7E2E081509040E04012
:10091000E1F700C000008D818115A1F1FA9409F47E
:10092000BEC00E944703182F8D838BE492E00E9483
:10093000B200812F0E94DE0080E793E00E94C10098
:10094000123000F70E947603182F8D8387E592E01E
:100950000E94B200812F0E94DE0080E793E00E9497
:10096000C100D0CF85E192E00E94B2008D810E944B
:10097000DE0080E793E00E94C10080E292E00E94E6
:10098000C100BDCF19821A821B821C8214E10CC0E7
:10099000FFEF20E782E0F15020408040E1F700C007
:1009A0000000115009F476C0BE016F5F7F4FCE0189
:1009B00005960E94E40384E692E00E94B2008D81D5
:1009C0000E94DE0080E793E00E94C10080E792E091
:1009D0000E94B200C980DA80EB80FC808F2D0E94DB
:1009E000DE008E2D0E94DE008D2D0E94DE008C2DFB
:1009F0000E94DE0080E793E00E94C100C114D10490
:100A0000E104F10429F29CF080EA92E00E94C10026
:100A100080E027960FB6F894DEBF0FBECDBFDF9102
:100A2000CF911F91FF90EF90DF90CF900895F6FE49
:100A300010C081E0EE81FF81828313828AEB92E015
:100A40000E94C10081E0E5CF86EF91E00E94C100E5
:100A5000DFCFEE81FF811282138280ED92E00E944F
:100A6000C10060E072E080E090E00E94A503182FD2
:100A700081EE92E00E94B200812F0E94DE0080E7AA
:100A800093E00E94C1001115E9F28DEE92E00E9400
:100A9000C100BECF87E792E00E94C100B9CF8CE3CE
:100AA00092E00E94C100B4CFCF92DF92EF92FF920A
:100AB0000F931F93CF93DF93EC016A017B018901B0
:100AC0008FEF0E9444062A988FEF0E9444068A8185
:100AD0009B81892B41F4FE2CED2CDC2CC12CCC0C01
:100AE000DD1CEE1CFF1C81E50E9444068F2D0E9438
:100AF00044068E2D0E9444068D2D0E9444068C2DA6
:100B00000E94440681E00E944406C9E08FEF0E94E3
:100B100044068F3F59F4C150C9F78FEF0E94440635
:100B20002A9A8FEF0E94440680E016C0C0E1D7E207
:100B3000823018F0F2CF219739F08FEF0E944406EF
:100B40008E3F09F0C0F789F08FEF0E9444062A9A81
:100B50008FEF0E94440681E0DF91CF911F910F91AA
:100B6000FF90EF90DF90CF900895E8011E5F8FEF28
:100B70000E9444068993C017D107C9F78FEF0E94DE
:100B800044068FEF0E944406DFCFCF92DF92EF92B0
:100B9000FF920F931F93CF93DF93EC016A017B01C8
:100BA00089018FEF0E9444062A988FEF0E94440625
:100BB0008A819B81892B41F4FE2CED2CDC2CC12CED
:100BC000CC0CDD1CEE1CFF1C88E50E9444068F2D1A
:100BD0000E9444068E2D0E9444068D2D0E944406DC
:100BE0008C2D0E94440681E00E944406C9E08FEFEC
:100BF0000E9444068F3F59F4C150C9F78FEF0E94FD
:100C000044062A9A8FEF0E94440680E022C0823078
:100C1000A8F78EEF0E944406E8011E5F89910E94AA
:100C200044060C171D07D1F7C0E1D7E202C0219797
:100C300041F08FEF0E9444068F3FC9F38F718530DA
:100C400089F08FEF0E9444062A9A8FEF0E94440693
:100C500081E0DF91CF911F910F91FF90EF90DF9096
:100C6000CF900895C0E1D7E202C0219751F38FEFF2
:100C70000E9444068F3FC9F3E4CF84B18C6284B9EB
:100C8000249A82E58CBD08958EBD0DB407FEFDCF7C
:100C90008EB5089520E030E1DC01F9011D92319715
:100CA000E9F7FC01F05F20E1DF011D923A95E9F7D9
:100CB000749630E2DF011D923A95E9F7B39640E071
:100CC00051E0DF01BA011D9261507040E1F7DC0193
:100CD000A05BBF4F30E5E1E0F1E001900D923A9565
:100CE000E1F7FC01E85CFE4EDF011D922A95E9F771
:100CF000E852F14010821182B4961082B29732E02D
:100D000010823183B39611921082EE5EFE4F1082F4
:100D100080E090E00E94C80CCB010C946B0C6F92A9
:100D20007F928F929F92AF92BF92CF92DF92EF927B
:100D3000FF920F931F93CF93DF93CDB7DEB785E874
:100D400093E00E949C0CCC5DDF4E8881C452D04160
:100D50008F93CD5DDF4E8881C352D0418F938BEF4F
:100D600092E09F938F930E94860CCE5DDF4E888128
:100D7000C252D0418F93CF5DDF4E8881C152D041A6
:100D80008F9382E193E09F938F930E94860CCB5BBD
:100D9000DF4E8881C554D0411F928F9386E293E045
:100DA0009F938F930E94860CC95BDF4E8881C75446
:100DB000D0411F928F93CA5BDF4E8881C654D041C9
:100DC0001F928F9389E393E09F938F930E94860CE9
:100DD0008E010F5E1F4F6E012FEEC21AD20A4E0116
:100DE0003FED831A3FEE930A0FB6F894DEBF0FBEB5
:100DF000CDBF360180E090EF5C01FE017196AE1A26
:100E0000BF0A2DE5E22E23E0F22EC501860D971DC7
:100E1000F30121913F011F922F939F938F93FF9294
:100E2000EF920E94860C0F900F900F900F900F90F2
:100E30000F906814790449F75801FCEEAF1AFFEEE1
:100E4000BF0AE12CF12C91E7892E93E0992EF50150
:100E500080819181F2E0AF0EB11C9F938F93FF923E
:100E6000EF929F928F920E94860C2FEFE21AF20A65
:100E70000F900F900F900F900F900F9030E1E316AE
:100E8000F10429F780E8E82E83E0F82EF80181913B
:100E90008F011F928F93FF92EF920E94860C0F900A
:100EA0000F900F900F900C151D0581F784E893E0CB
:100EB0000E949C0CDF91CF911F910F91FF90EF90BA
:100EC000DF90CF90BF90AF909F908F907F906F906A
:100ED00008956F927F928F929F92AF92BF92CF921E
:100EE000DF92EF92FF920F931F93CF93DF93B62E73
:100EF0006C0131EFC31A3FEED30AF60110822115BF
:100F000009F457C0FC01E05FFF4E00811181080F1A
:100F1000191FF0E44F9F700111244801820E911CAB
:100F2000C1E07C2EF801A1918F01B0E0A7014B0D2B
:100F3000511D27E030E0BD01022E02C07595679576
:100F40000A94E2F760FF27C0BA0176956795769517
:100F5000679576956795680F792F711DFB01E95CA0
:100F6000FF4EA080F42FF7706F2EEA2DF0E0062CD4
:100F700002C0F595E7950A94E2F7E0FF02C0F6019A
:100F80007082FB01E95CFF4E6C2F01C0660F6A9412
:100F9000EAF7A626A082215031094F5F5F4F2F3F0D
:100FA000320749F620E4E20EF11C8016910609F0A2
:100FB000B9CFFC01E95CFE4E81E08083DF91CF91E7
:100FC0001F910F91FF90EF90DF90CF90BF90AF9067
:100FD0009F908F907F906F900895EF92FF920F9364
:100FE0001F93CF93DF93CDB7DEB72D970FB6F8944D
:100FF000DEBF0FBECDBF8C01DC01AE5EBF4E4D919A
:101000005D91FC01E40FF51F80812181E22FF82F13
:101010007F01BA016E5F7F4F7E936E93FF70F983FD
:10102000E295EF70EB87EB822E2D2F709F2D80E0E5
:10103000907F8115F0E89F0709F4B4C0F701FF70B5
:10104000EC87FD878130F0E89F07B0F4811520E43C
:10105000920709F480C008F088C08115E0E29E077D
:1010600009F463C008F0AEC0892B09F4B8C08C85C0
:101070009D858D939D9328C0811530EC930709F4CD
:10108000C9C078F18115F0EE9F0709F4F6C081150B
:1010900030EF930709F4DEC08115904D09F085C04B
:1010A000D8013B85A30FB11DB05FF8018981E80F1E
:1010B000F11DF05F4C916081C8010E946907F80141
:1010C000E95CFE4E81E080832D960FB6F894DEBF7A
:1010D0000FBECDBFDF91CF911F910F91FF90EF9089
:1010E00008958115F0EA9F0709F4ACC0811530EB33
:1010F000930709F49DC08115904909F056C021114C
:10110000E3CF9801F9812F0F311D305F8B85080FD8
:10111000111D105FF9019081F80180819817A1F2EB
:101120004C5F5F4F4D935D93CFCF98012C5C3F4E4A
:10113000F901808191E0980F9083080F111D080F2D
:10114000111D0C5E1F4EF801608371832C853D8557
:101150002D933D93B9CFE9810E0F111DF801F05F7A
:101160008081FB81F813DCCFAFCF811530E6930788
:1011700009F4ABC08115E0E79E0709F49DC0811515
:10118000904599F498018981280F311D305F9B8526
:10119000090F111D105FF9019081F80180819813EA
:1011A00093CFBECF2F3008F497C0FF92EF9289E81B
:1011B00093E09F938F930E94860C0F900F900F9057
:1011C0000F9082CF8115904381F73981030F111D54
:1011D000F801F05F80819B81981376CFA1CF8E2D8F
:1011E00090E0E0EEEE1609F492C08E3E9105E9F62D
:1011F000F801EC5CFF4E808181508083080F111D47
:10120000080F111DF801EC5EFF4E808191818D93D6
:101210009D935ACF0E94660CF9810F0F111DF801A2
:10122000F05F9C01307897FD5DC02E2120834CCF6C
:10123000105FF8018081EC85FD85E80FF11DED93CD
:10124000FD9342CFD801A05FBF4E2C853D852D93E5
:101250003D933ACFEE2DF0E0E433F1050CF066C09B
:10126000E730F1050CF4A1CF3797ED32F10508F026
:101270009CCFE95FFF4E0C94000C8E2D90E0EEE9C0
:10128000EE16A1F1813A910509F08FCFF80139816D
:10129000E30FF11DF05F8081080F111DF801E85C7C
:1012A000FE4E81E02081211130C0880F991F860FEA
:1012B000971F8D939D9308CF2981020F111DF8016F
:1012C000F05F80818E0D8083FFCEF9810F0F111D9D
:1012D000F801F05FE082F8CEE22FF0E0EC5CFF4E28
:1012E0000C94000C2A953FEF23959FCFF80129819C
:1012F000E20FF11DF05F8081080F111DF801E85C1D
:10130000FE4E81E020812111D0CF80E0CECFF801C8
:10131000E95CFF4E80E091E0DF019C011D922150CD
:101320003040E1F7FF5F81E08083CECEE535F10507
:1013300009F482C1E536F10509F037CFC801805FB5
:101340009F4E8B839C83DC010D90BC91A02DAD83BF
:10135000BE83F981EF2FF0E0E9831A82AF014F5F7E
:101360005F4FBD01600F711F40970E94760C2D8169
:101370003E812F5F3F4F89819A81280F391FAB81B2
:10138000BC812D933D93A0CED801A15FBF4EE981D2
:101390000E0F111DF801F05F808187FB882780F90F
:1013A0008C938081880F80838FCEB801615F7F4EE0
:1013B000C8012B85820F911DAC01505F3981030F4D
:1013C000111DD801B05F21E0FA0130814C91431723
:1013D00008F020E0DB012C93F801F05FDC01B05F46
:1013E0008C919081891B80836FCED801A15FBF4E05
:1013F000E9810E0F111DF801F05F808181708C93DF
:1014000080818695808360CEB801615F7F4EF80150
:10141000B981EB0FF11DAF01505F2B85020F111D3C
:101420009801305F81E0DA019C91D9012C91291754
:1014300008F080E0DB018C93F05FD801B05F808121
:101440009C91891B808340CEA801415F5F4EF801CB
:10145000A981EA0FF11D9F01305FD9018C91BB85F5
:101460000B0F111DB801705FDB019C91890F99274B
:10147000991F21E091300CF420E0DA012C93F05F09
:10148000D801B05F80819C91890F80831DCEF801C7
:101490008981E80FF11DF05F9B85090F111DD801AF
:1014A000B05F80819C91892780830ECEF8012981CD
:1014B000E20FF11DF05F3B85030F111DD801B05FF6
:1014C00080819C9189238083FFCDF801A981EA0F57
:1014D000F11DF05FBB850B0F111DD801B05F80813E
:1014E0009C91892B8083F0CDF8013B85E30FF11DA2
:1014F000F05F80819981090F111DF801F05F8083F1
:10150000E3CDF8012981E20FF11DF05F2081F801A0
:10151000E05FFF4E0190F081E02DE00FF11F822F80
:1015200090E064E670E00E94EC0B608389E2289F03
:10153000812D112482958F70922F34E6839F90190C
:1015400011248DEC989F912D112496959695969542
:101550009183289F812D1124869586958695982FB5
:10156000990F990F890F880F281B2283ADCDD801C1
:10157000A05FBF4EF9810F0F111DF801F05F2081B0
:1015800030E0C901880F991F880F991F820F931FA0
:10159000805B9F4F8D939D9397CDD801A05FBF4EE9
:1015A0008D919D911297B801615F7F4EE9810E0F79
:1015B000111DA801505FFA012081AC01420F511D9D
:1015C00021E0503108F420E0FB012083F801F05FB6
:1015D0002081820F911D8D939D9376CDD801AB5CB8
:1015E000BF4E9981090F111DF801F05F80818C9326
:1015F0006BCDD801AA5CBF4E8981080F111DF8017F
:10160000F05F80818C9360CDF801E85CFE4E9081A4
:10161000911136C031968F5F8031C9F74D935D933C
:1016200053CDF8012981E20FF11DF05FD801AA5CCA
:10163000BF4E8C91808348CDF801E05FFF4EEB8375
:10164000FC83208131812D833E839981892F90E015
:1016500089831A82AC014F5F5F4FB801705FC90187
:10166000800F911F0E94760CAD81BE811196E98199
:10167000FA81AE0FBF1FEB81FC81A083B18324CD23
:101680003981030F111DF801F05F80831DCDCDB7A7
:10169000DEB7C650D6400FB6F894DEBF0FBECDBF42
:1016A0002FEF8AEF94E0215080409040E1F700C096
:1016B00000000E94570040E054E06FEF70E0CE0160
:1016C00001960E947F0CCE0101960E94F1016E01ED
:1016D000EFEFCE1AE9EFDE0A86E0F60111928A9565
:1016E000E9F7C6010E942F04811509F46BC08FE64B
:1016F00091E00E94A300A12CB12C450189E2782E33
:101700000DEC8BEA91E00E94A30080E30E949C0014
:1017100080E30E949C0080E3880D0E949C0084EB83
:1017200091E00E94A3009E012F5F3B4FA401B501F1
:10173000C6010E945405811509F449C0CE018F5F8E
:101740009B4F7C01F70111917F01179D812D112481
:1017500082958F70805D0E949C00109F612C1124E7
:10176000669466946694609E912D11249695969544
:101770009695892F880F880F890F880FF62DF81BF3
:101780008F2F805D0E949C00862D880F880F860D0C
:10179000880F181B812F805D0E949C00EC14FD04B3
:1017A00089F680E793E00E94A3002FEF821A920A45
:1017B000A20AB20A8AE088169104A104B10409F0D1
:1017C000A0CFFFCF80E991E00E94A300FFCF86EB7E
:1017D00091E00E94A300FFCF97FB072E16F4009420
:1017E00007D077FD09D00E94060C07FC05D03EF417
:1017F000909581959F4F0895709561957F4F0895BD
:10180000EE0FFF1F0590F491E02D0994AA1BBB1B5E
:1018100051E107C0AA1FBB1FA617B70710F0A61BF0
:10182000B70B881F991F5A95A9F780959095BC0111
:10183000CD0108958F929F92AF92BF92CF92DF9287
:10184000EF92FF92CF93DF93EC01688179818A81D7
:101850009B81611571058105910521F464E279EDA3
:101860008BE597E02DE133EF41E050E00E946B0FF4
:1018700049015A019B01AC01A7EAB1E40E948A0F19
:101880006B017C01ACEEB4EFA50194010E94980FAE
:10189000DC01CB018C0D9D1DAE1DBF1DB7FF03C02C
:1018A0000197A109B04888839983AA83BB839F7756
:1018B000DF91CF91FF90EF90DF90CF90BF90AF90EE
:1018C0009F908F9008950E941A0C089581E591E0F1
:1018D0000E941A0C0895A0E0B0E08093510190930B
:1018E0005201A0935301B09354010895FB01DC0110
:1018F00002C001900D9241505040D8F70895DC018C
:1019000001C06D9341505040E0F70895A0E0B0E071
:10191000ECE8FCE00C94AD0FAE014B5F5F4FFA01B9
:1019200061917191AF018091A2039091A3030E94F4
:10193000DB0CE2E00C94C90F0F931F93CF93DF935E
:10194000E091A203F091A303238100E010E021FDC8
:101950000EC00FEF1FEFC801DF91CF911F910F91C4
:1019600008950995892B11F00FEF1FEFCE01EC01BF
:1019700089916091A2037091A303DB011896ED9108
:10198000FC918111EECF8AE00995892B21F3E1CFFB
:10199000FC012FB7F8946091A6037091A703809182
:1019A000A8039091A9032FBF309721F06083718322
:1019B000828393830895ABE0B0E0E1EEFCE00C9409
:1019C0009E0F6C017B018A01FC01178216828381C4
:1019D00081FFDAC19AE0492EF6012381F70123FD48
:1019E000859123FF81917F01811509F41FC1853203
:1019F00039F423FD959123FF91917F01953229F4CC
:101A0000B60190E00E94DD0EE7CF30E0612C512C52
:101A1000712CF0E27F1640F59B32D9F058F49032E9
:101A2000D1F09332F1F09E3299F576FCFFC06894C4
:101A300076F806C09D3291F09033C1F4689470F846
:101A4000F70123FD959123FF91917F019111E1CF42
:101A500029C0689471F8689472F8F2CF689473F8AA
:101A6000EFCF689474F8ECCF77FC1CC080ED890F41
:101A70008A30C8F676FE05C0649C800D1124682E5D
:101A8000DFCF549C800D1124582E689475F8D8CF60
:101A90009C3619F4689477F8D3CF9C3409F44BC082
:101AA000983671F2892F8F7D8554833008F445C0B4
:101AB000933609F466C0933709F469C0933509F485
:101AC00075C0943619F0993609F09FC0F80177FE79
:101AD00095C061917191819191918F01272D2F7600
:101AE000722E97FF09C090958095709561957F4FF4
:101AF0008F4F9F4F689477F82AE030E0AE014F5F38
:101B00005F4F5A010E940D0F8A19A82E76FEC5C09C
:101B1000872D8E7FA61408F0BFC074FE12C172FC20
:101B200006C1F72DFE7E7F2EB62C872D8678811577
:101B300009F4C0C001C131E083CF3115F9F0085F6D
:101B40001F4F8FE3898388248394912CAE014F5FCC
:101B50005F4F5A01E89477F873FC03C08514910431
:101B6000B0F181149104D1F5511409F435CFB601C7
:101B700080E290E00E94DD0E5A94F6CF0C5F1F4F7A
:101B8000E0CFF801808189830E5F1F4FDCCFF80121
:101B9000A190B1908F01662D70E076FC02C06FEFCE
:101BA0007FEFC5010E94D20E4C01D4CFF801A19065
:101BB000B1908F01662D70E076FC02C06FEF7FEF71
:101BC000C5010E94C70E4C01689477F8C5CFB601D5
:101BD00080E290E00E94DD0E5A94C0CFF50177FCC0
:101BE000859177FE81915F01B60190E00E94DD0E44
:101BF00051105A94F1E08F1A9108B3CF619171910D
:101C0000072E000C880B990B68CF372CE89434F81A
:101C10002AE030E0953739F1572D597F352E90372E
:101C200099F058F49835A9F09F36D9F0F6018681DD
:101C300097812B96E1E10C94BA0F9837B9F774FCB1
:101C400005C020E130E00FC0689434F8689432F8A1
:101C5000F8CF74FE03C0872D8660382E20E132E075
:101C600002C028E030E0F80137FE11C061917191A7
:101C7000819191918F01FE0131965F01AF010E9428
:101C80000D0F8A19A82E732CE89477F83FCF619135
:101C9000719180E090E0EECF782EBA2C74FE45CFA3
:101CA000FE01EA0DF11D8081803309F043C0272D2C
:101CB000297E722E73FC0EC070FE4FC06A2CB514C4
:101CC00018F4650C6B18B52C852D8B195B1408F472
:101CD00080E0B80EB51408F042C05B1874FE41C035
:101CE000B60180E390E00E94DD0E72FE09C088E537
:101CF00090E071FC02C088E790E0B6010E94DD0E22
:101D0000A614D8F1AA94B12C4FEFA41AB40ACE01AC
:101D100001963C01A80EB91EF50182915F01B60142
:101D200090E00E94DD0E6A147B04B1F71DCFB62C43
:101D3000782EB6CF72FC02C0B394BCCFB394B394E8
:101D4000B9CFB62C782EF1CEB60180E290E00E9499
:101D5000DD0E33943514C0F3B7CF3B2CFBCF512CA1
:101D6000BDCF872D8678811559F280E271FC8BE218
:101D700077FC8DE2B60190E0C1CFB60180E390E040
:101D80000E94DD0E6A94BCCF8FEF9FEF52CFFC0113
:101D90000590615070400110D8F7809590958E0F96
:101DA0009F1F0895FC016150704001900110D8F709
:101DB000809590958E0F9F1F08950F931F93CF933B
:101DC000DF93182F092FEB018B8181FD09C01FEFD5
:101DD0000FEF812F902FDF91CF911F910F910895D9
:101DE00082FF14C02E813F818C819D812817390785
:101DF0003CF4E881F981CF010196998388831083AF
:101E00008E819F8101969F838E83E3CFE885F9853C
:101E1000812F0995892BA1F3DACFFA01AA2728305F
:101E200051F1203181F1E8946F936E7F6E5F7F4FA7
:101E30008F4F9F4FAF4FB1E03ED0B4E03CD0670F23
:101E4000781F891F9A1FA11D680F791F8A1F911D76
:101E5000A11D6A0F711D811D911DA11D20D009F4C6
:101E600068943F912AE0269F11243019305D319308
:101E7000DEF6CF010895462F4770405D4193B3E0F1
:101E80000FD0C9F7F6CF462F4F70405D4A3318F098
:101E9000495D31FD4052419302D0A9F7EACFB4E049
:101EA000A6959795879577956795BA95C9F7009701
:101EB0006105710508959B01AC010A2E06945795A2
:101EC000479537952795BA95C9F7620F731F841FF9
:101ED000951FA01D0895052E97FB1EF400940E94E7
:101EE000820F57FD07D00E94E30F07FC03D04EF48A
:101EF0000C94820F50954095309521953F4F4F4F50
:101F00005F4F089590958095709561957F4F8F4FA5
:101F10009F4F08950E94D40FA59F900DB49F900DE0
:101F2000A49F800D911D11240895B7FF0C948A0F72
:101F30000E948A0F821B930B08952F923F924F921B
:101F40005F926F927F928F929F92AF92BF92CF9249
:101F5000DF92EF92FF920F931F93CF93DF93CDB752
:101F6000DEB7CA1BDB0B0FB6F894DEBF0FBECDBFCA
:101F700009942A88398848885F846E847D848C849B
:101F80009B84AA84B984C884DF80EE80FD800C81A4
:101F90001B81AA81B981CE0FD11D0FB6F894DEBF87
:101FA0000FBECDBFED010895A29FB001B39FC00148
:101FB000A39F700D811D1124911DB29F700D811D75
:101FC0001124911D0895A1E21A2EAA1BBB1BFD012D
:101FD0000DC0AA1FBB1FEE1FFF1FA217B307E40708
:101FE000F50720F0A21BB30BE40BF50B661F771F60
:101FF000881F991F1A9469F7609570958095909540
:102000009B01AC01BD01CF010895F894FFCF110BE6
:10201000D508D508040BD508D508D508D508D508A6
:10202000D508D508D508D508D508F90AD508D508A2
:10203000EE0AD508D508D508D508D508CD0AD508A3
:10204000D508D508D508D508D508D508D508D508A8
:10205000D508B70AD508D508D508D508D508D508B4
:10206000D508D508D508810A740A650A560A470AB0
:10207000240A040AF509D509D508D508D508D508D4
:06208000D508D508C409D3
:1020860001F0909090F02060202070F010F080F029
:10209600F010F010F09090F01010F080F010F0F0CA
:1020A60080F090F0F010204040F090F090F0F0902A
:1020B600F010F0F090F09090E090E090E0F08080EA
:1020C60080F0E0909090E0F080F080F0F080F0807A
:1020D6008001000000AED580A83FD300408D1420BB
:1020E60000A1C8DA12817FD9F1DB40A4A62EAF4F3A
:1020F6004B207375636365737366756C6C792069C1
:102106006E697469616C697A6564206361726400E2
:10211600455252206661696C656420696E6974690E
:10212600616C697A65206361726400426C6F636BEF
:10213600203078003A004552522063616E6E6F740B
:1021460020726561642035313220627974657320AE
:1021560066726F6D2030783030003031323334356E
:102166003637383941424344454600434D443020D2
:102176005231203D2000434D443020726574757203
:102186006E656420696C6C6567616C20636F6D6D4C
:10219600616E642100434D4438205231203D2000B9
:1021A600434D4438206661696C65642100434D44A3
:1021B60038206F6B2C205231203D2000434D443493
:1021C600312074696D656F75742100434D44353552
:1021D600205231203D200041434D443431205231BC
:1021E600203D2000434D443538205231203D20000B
:1021F6004F4352203D2000434D4435383A204F434B
:102206005220696E76616C69642C20636172642069
:102216006E6F7420726573706F6E64696E672100ED
:102226004361726420706F77657220757020696EE5
:10223600636F6D706C657465210043617264207410
:10224600797065203D20534448432F53445843003A
:10225600436172642074797065203D205344534372
:1022660000434D443136205231203D2000434D4439
:102276003136206661696C6564210050726F677241
:10228600616D20436F756E7465723A2030782558FB
:102296000A00496E646578205265676973746572D1
:1022A6003A2025640A00537461636B20506F696E8F
:1022B6007465723A2025640A00536F756E64207443
:1022C600696D65723A20307825580D44656C6179E0
:1022D6002074696D65723A2030782558005265671A
:1022E6006973746572205625643A20307825580A39
:1022F60000537461636B25643A20307825580A00D0
:10230600202558000A2D2D2D00556E6B6E6F776EA9
:10231600206F70636F64653A20307825580A000094
:00000001FF
