:100000000C9438000C9455000C9455000C94550039
:100010000C9455000C9455000C9455000C9455000C
:100020000C9455000C9455000C9455000C945500FC
:100030000C9455000C9455000C9455000C945500EC
:100040000C9455000C9455000C9455000C945500DC
:100050000C9480000C9455000C9455000C945500A1
:100060000C9455000C9455000C9455000C945500BC
:1000700011241FBECFEFD0E1DEBFCDBF12E0A0E064
:10008000B1E0EEECF7E502C005900D92AC32B1079D
:10009000D9F722E0ACE2B2E001C01D92AA33B20768
:1000A000E1F70E9437270C94A92B0C9400000E94C2
:1000B000AE0087E690E00E946E000C94120180E092
:1000C00008950E94A60180E0089580E090E00895E0
:1000D00080E090E0089580E090E008959093C5005E
:1000E0008093C40088E98093C1008EE08093C200B1
:1000F00008959091C00095FFFCCF8093C6000895AD
:100100008F938091C600809300018F91189594EA97
:100110009093BC009091BC0097FFFCCF98E7909320
:10012000BB0094E89093BC009091BC0097FFFCCF7B
:100130001092BB0094E89093BC009091BC0097FF94
:10014000FCCF8093BB0084E88093BC008091BC000E
:1001500087FFFCCF84E18093BC0008951092B90022
:1001600088E48093B80084E08093BC00089584EA1A
:100170008093BC008091BC0087FFFCCF089584E190
:100180008093BC0008958093BB0084E88093BC00FA
:100190008091BC0087FFFCCF089584EC8093BC0065
:1001A0008091BC0087FFFCCF8091BB00089584E85C
:1001B0008093BC008091BC0087FFFCCF8091BB0086
:1001C000089524EA2093BC002091BC0027FFFCCFB7
:1001D00028E72093BB0024E82093BC002091BC00BA
:1001E00027FFFCCF1092BB0024E82093BC00209195
:1001F000BC0027FFFCCF611589F0FC01680F792F47
:10020000711D94E881918093BB009093BC00809114
:10021000BC0087FFFCCFE617F707A1F784E18093C6
:10022000BC000895CF93DF93CDB7DEB76A970FB6C2
:10023000F894DEBF0FBECDBF8AE1E5E5F1E0DE0157
:10024000119601900D928A95E1F784EA8093BC00A3
:100250008091BC0087FFFCCF88E78093BB0084E8D7
:100260008093BC008091BC0087FFFCCF1092BB0044
:1002700084E88093BC008091BC0087FFFCCFFE0126
:1002800031969E01255E3F4F94E881918093BB009B
:100290009093BC008091BC0087FFFCCFE217F3076E
:1002A000A1F784E18093BC006A960FB6F894DEBF94
:1002B0000FBECDBFDF91CF9108950F931F93CF93C2
:1002C000DF93EC01C058DF4F00E014E8802F806B13
:1002D0000E94870080E00E94870080E10E948700E2
:1002E00084EA8093BC008091BC0087FFFCCF88E744
:1002F0008093BB001093BC008091BC0087FFFCCFB3
:1003000080E48093BB001093BC008091BC0087FF09
:10031000FCCFFE01E058F10981918093BB0010935E
:10032000BC008091BC0087FFFCCFEC17FD07A1F754
:1003300084E18093BC000F5FEF01C058DF4F0830AD
:1003400029F6DF91CF911F910F91089584B18C62AE
:1003500084B9249881E58CBD2A9A08958EBD0DB488
:1003600007FEFDCF8EB5089560E070E682E59BE55F
:1003700008959C01FC01A081B1811097C1F0FD019D
:1003800003C031969A3331F090819132D0F780E0FA
:1003900090E008958C91803351F41296EA17FB0790
:1003A00031F4D901ED93FD9380E090E008958FEF53
:1003B0009FEF0895CF93DF9300D000D0CDB7DEB785
:1003C0008B839C8369837A83892B91F0AB81BC8179
:1003D000ED91FD911297309759F08081811541F090
:1003E00012962D913D91868197812817390779F0D2
:1003F00089E090E020E030E0A981BA812D933D931F
:100400000F900F900F900F90DF91CF910895818101
:100410000E945F0080FDECCFEB81FC812081318167
:1004200080E090E0E9CFCF92DF92EF92FF920F93BE
:100430001F93CF93DF9300D000D0CDB7DEB78B836F
:100440009C83FC01848181110FC080E090E00F90BB
:100450000F900F900F90DF91CF911F910F91FF9010
:10046000EF90DF90CF900895F096E983FA83EB81C7
:10047000FC81248D358D468D578D01E010E069811A
:100480007A8181810E946800892B71F5EB81FC8162
:100490001482848D958DA68DB78D408D518D628D82
:1004A000738D04A115A126A137A16C017D01C01A8D
:1004B000D10AE20AF30A86019701041715072607F5
:1004C000370718F62381223009F0BFCF9A01AB011C
:1004D000280F391F4A1F5B1F01E010E069817A81F4
:1004E00081810E946800B1CFC801B1CF8F929F92E5
:1004F000AF92BF92CF92DF92EF92FF920F931F9332
:10050000CF93DF937C014A015B010E941302EC014F
:10051000892B09F058C09401A501225031094109E5
:100520005109F70184899589A689B7890297A1099C
:10053000B109281739074A075B0708F052C0A2859E
:10054000B3850E94B42704A515A526A537A54B01A0
:100550005C01800E911EA21EB31EF701848E958E43
:10056000A68EB78E6701F0E3CF0ED11C80E092E03B
:10057000F6019C01119221503040E1F7F7012285EC
:1005800033852115310551F430C02196FFEF8F1AC4
:100590009F0AAF0ABF0AC217D30770F401E010E048
:1005A0009401A501B601F70181810E946800F7015D
:1005B00022853385892B49F381E0C217D30709F4DB
:1005C00080E0C82FD0E0CE01DF91CF911F910F9135
:1005D000FF90EF90DF90CF90BF90AF909F908F9063
:1005E0000895A12CB12C4501B8CFC0E0D0E0E4CFF4
:1005F0000F931F93CF93DF938C01DB01FC0140E04D
:1006000050E09A018EE22F5F3F4F9081903261F06F
:10061000953009F495EEED01C40FD51F2930310551
:1006200049F199874F5F5F4F2B30310511F03196BB
:10063000EACF4A0F5B1FFA011186F80183858F7399
:1006400018968C931897448D558D668D778D4D93A4
:100650005D936D937D938689978912968D939D9373
:10066000808D918D14978D939D93DF91CF911F91E4
:100670000F9108958987EA012196CA0FDB1F4E5F0B
:100680005F4F99873196BFCFCF92DF92EF92FF9263
:100690000F931F93CF93DF9300D000D0CDB7DEB779
:1006A0008B839C83FC018481811122C0EB81FC81BE
:1006B0008581813009F45EC040E050E060E0EB816C
:1006C000FC8181810E946B009C0181E0232B71F0F1
:1006D00090E00F900F900F900F90DF91CF911F91AE
:1006E0000F91FF90EF90DF90CF90089580E0F0CFD2
:1006F000F096E983FA83EB81FC81248D358D468D5C
:10070000578D01E010E069817A8181810E94680043
:10071000892B09F09FC0EB81FC811482848D958D1B
:10072000A68DB78D408D518D628D738D04A115A15D
:1007300026A137A16C017D01C01AD10AE20AF30A91
:1007400086019701041715072607370708F0AECF73
:100750002381223009F0AACF9A01AB01280F391F5B
:100760004A1F5B1F01E010E069817A8181810E944C
:1007700068009CCF15828081833009F09DCF80E096
:1007800092E0BF01605D7F4FFB019C0111922150FF
:100790003040E1F782E5EB81FC8180AB81AB81E603
:1007A00082AB91E493AB22E7EC5EFD4F2083EB81BB
:1007B000FC81EB5EFD4F2083EB81FC81EA5EFD4F07
:1007C0009083EB81FC81E95EFD4F8083EB81FC81AE
:1007D00080899189A289B389E85EFD4F80839183E6
:1007E000A283B383EB81FC8184859585A685B7853B
:1007F000E45EFD4F80839183A283B383EB81FC8110
:10080000E45DFD4F1082EB81FC81E35DFD4F1082C2
:1008100085E5EB81FC81E25DFD4F80838AEAEB8117
:10082000FC81E15DFD4F8083EB81FC8180A191A182
:10083000A2A1B3A19C01AD012F5F3F4F4F4F5F4F6E
:10084000248F358F468F578F01E010E081810E9401
:10085000680032CF81E03CCF8F929F92AF92BF92DF
:10086000CF92DF92EF92FF920F931F93CF93DF937C
:1008700000D000D0CDB7DEB78B839C836A017B01AB
:10088000FC01248D358D468D578D80E090E02C1530
:100890003D054E055F0589F40F900F900F900F9066
:1008A000DF91CF911F910F91FF90EF90DF90CF904C
:1008B000BF90AF909F908F900895848181111CC04C
:1008C000F096E983FA8301E010E09601A7016981BF
:1008D0007A81EB81FC8181810E946500009729F07B
:1008E000C8012FEFF22EEF2C6701EB81FC81C48E43
:1008F000D58EE68EF78ED0CF8B819C81C096898372
:100900009A8301E010E0BC01EB81FC8181810E94AF
:100910006800892B79F5EB81FC811482848D958D9B
:10092000A68DB78D408D518D628D738D04A115A15B
:1009300026A137A14C015D01801A910AA20AB30ACF
:1009400084019501041715072607370708F0BBCF68
:100950002381223009F0B7CF9A01AB01280F391F4C
:100960004A1F5B1F01E010E069817A8181810E944A
:100970006800A9CFC80190CF0F931F93CF93DF9347
:10098000CDB7DEB760970FB6F894DEBF0FBECDBF10
:100990008F87988B49835A836B837C830D831E8357
:1009A0002F833887DC011C91123009F467C01330A3
:1009B00059F182E090E01130E1F4CA0196958795F3
:1009C000480F591F49875A87852F869590E094963E
:1009D0004D915D916D917D919897480F591F611DC3
:1009E000711DCD010E942C04892B09F473C081E094
:1009F00090E060960FB6F894DEBF0FBECDBFDF91DA
:100A0000CF911F910F910895EF85F88984A195A149
:100A1000A6A1B7A149815A816B817C8117E07695A7
:100A20006795579547951A95D1F7480F591F6A1F33
:100A30007B1FCF010E942C04892BC9F64D815E815A
:100A40006F8178857F70EF85F889F09689819A812A
:100A5000880F991F880F991F8C7F9170E80FF91FDD
:100A6000B381B07FCA01B72B808391836283B38344
:100A700081E0AF85B88914968C9329C09A81AB81A7
:100A8000BC81492F5A2F6B2F70E0EF85F88984A124
:100A900095A1A6A1B7A1480F591F6A1F7B1FCF01BF
:100AA0000E942C04892B09F0A2CFE981FA81EE0F74
:100AB000FF1FEE7FF1702F853889E20FF31F4D8104
:100AC0005E8140AB51AB81E0D90114968C9380E0FC
:100AD00090E08FCFEF85F889F096EB87FC8729852A
:100AE0003A852F5F3F4F2D873E87E985FA85F17064
:100AF0004B855C85E40FF51F832F869590E0298157
:100B00003A814B815C8120FF2EC030813F702D8166
:100B10002295207F232B2083AF85B88914961C93C0
:100B200090964D915D916D917D919897480F591FC9
:100B3000611D711DCD010E942C04892B09F057CF36
:100B4000ED85FE85F1702B853C85E20FF31F8D81CD
:100B50009E81AF81B88524E0B695A7959795879536
:100B60002A95D1F71FC0BD81B083EF85F889148322
:100B700044A155A166A177A1480F591F611D711DA0
:100B8000CF010E942C04892B09F031CFED85FE8521
:100B9000F1704B855C85E40FF51F8081807F9E811D
:100BA0009F70892B808381E0AF85B88914968C93E0
:100BB0008ECFCF92DF92EF92FF92CF93DF9300D050
:100BC00000D000D0CDB7DEB78D839E836A017B0154
:100BD00022E0C216D104E104F10450F0FC01848942
:100BE0009589A689B789C816D906EA06FB0688F052
:100BF00061E070E080E090E00F900F900F900F9018
:100C00000F900F90DF91CF91FF90EF90DF90CF90FA
:100C100008958081823009F44AC08330F9F0813030
:100C200039F7CA01969587959C01240F351F2983B2
:100C30003A83832F869590E044A155A166A177A1C0
:100C4000480F591F611D711DCF010E942C04892B73
:100C500009F44FC08FEF9FEFBC01CECFED81FE8135
:100C600084A195A1A6A1B7A127E076956795579590
:100C700047952A95D1F7480F591F6A1F7B1FCF014F
:100C80000E942C04892B31F7F601EE0FFF1FEE0FA7
:100C9000FF1FEC7FF1702D813E81E20FF31F80A9D1
:100CA00091A9A2A9B3A9BC01CD019F70A5CF4D2DDB
:100CB000562F6F2D70E0ED81FE8184A195A1A6A134
:100CC000B7A1480F591F6A1F7B1FCF010E942C0438
:100CD000892B09F0BFCFF601EE0FFF1FEE7FF170F9
:100CE0002D813E81E20FF31F60A971A980E090E0A1
:100CF00083CF89819A8101968B839C83E981FA81D4
:100D0000F1702D813E81E20FF31F30A93983892FC5
:100D1000869590E0ED81FE8144A155A166A177A161
:100D2000480F591F611D711DCF010E942C04892B92
:100D300009F090CFEB81FC81F1702D813E81E20FB3
:100D4000F31F80A9E981F82FBF01C0FE09C0729589
:100D500062956F7067277F70672780E090E04CCFC7
:100D60007F7080E090E048CF6F927F928F929F9249
:100D7000AF92BF92CF92DF92EF92FF920F931F93A9
:100D8000CF93DF93CDB7DEB72A970FB6F894DEBFC7
:100D90000FBECDBF3C01DC010D911D91FC011686FB
:100DA0001786108A118AC680D780E084F184C11426
:100DB000D104E104F10491F4D8018C91833008F45A
:100DC0005DC098968D919D910D90BC91A02D10972E
:100DD0009040804009F452C06C017D01D8011A9600
:100DE0008D919D919C0140E050E0892B09F063C0FA
:100DF000C80113C0E2E0CE16D104E104F10438F1D9
:100E0000F80184899589A689B789C816D906EA06A2
:100E1000FB06E8F4D3018D919C91A601B7010E94D5
:100E2000D9056B017C01BFEFCB16DC04EC04FC049C
:100E300009F781E090E00DC0D30156961D921D92F6
:100E40001D921D92F301C28AD38AE48AF58A82E058
:100E500090E02A960FB6F894DEBF0FBECDBFDF91AB
:100E6000CF911F910F91FF90EF90DF90CF90BF90A7
:100E7000AF909F908F907F906F900895F80180853C
:100E80009185892B21F380A591A5A2A5B3A5F30196
:100E9000868B978BA08FB18FC28AD38AE48AF58A1A
:100EA000892B8A2B8B2B99F2005D1F4F028F138F9A
:100EB00080E090E0CECFC601D7010297A109B10929
:100EC0008F839887A987BA87D80154968D909D9073
:100ED000AD90BD90C401D5010297A109B1098F80E1
:100EE0009884A984BA8488169906AA06BB0608F0D5
:100EF000A3CF6F81788589859A850E946827D8015C
:100F00009C962D913D914D915D91DC01CB01820F1D
:100F1000931FA41FB51FBBCF4F925F926F927F921A
:100F2000AF92BF92CF92DF92EF92FF920F931F93F7
:100F3000CF93DF935C012A013B01A801B90182E054
:100F4000481651046104710408F466C0F501C081BB
:100F5000D1818C899D89AE89BF89481659066A0658
:100F60007B0608F059C0413051056105710508F054
:100F700065C0CE0134C020E030E08901A201B30198
:100F8000CE010E94BC049C01892B09F047C08889CE
:100F90009989AA89BB894C895D896E897F898A0173
:100FA0009B01025011092109310980179107A207FD
:100FB000B30750F40196A11DB11D888B998BAA8BA4
:100FC000BB8B8D8181608D83C416D506E606F7063E
:100FD00008F047C0F5018081918126013701A20107
:100FE000B3010E94D9056B017C01F1E0CF16D10459
:100FF000E104F104B0F181F08FEFC816DC04EC04D9
:10100000FC0491F18C899D89AE89BF8948165906E7
:101010006A067B0608F4AFCF22E030E0C901DF9119
:10102000CF911F910F91FF90EF90DF90CF90BF90E5
:10103000AF907F906F905F904F90089569F348173D
:1010400059076A077B0740F72FEF3FEF8901CE0171
:101050000E94BC049C01892B09F7F50180819181D4
:10106000BECF20E030E0DACF21E030E0D7CF4F92A2
:101070005F926F927F928F929F92AF92BF92CF9228
:10108000DF92EF92FF920F931F93CF93DF938C0128
:101090004A015B01FC01C081D18181149104A1044A
:1010A000B10409F081C04C845D846E847F844889DA
:1010B00059896A897B89411451046104710409F0DA
:1010C0004EC0452B462B472B09F458C08C899D896F
:1010D000AE89BF89612C712C230143946201730195
:1010E00011C0C1F16F3F7F4F8F4F9F4F09F4DBC09D
:1010F000C414D504E604F70409F440C08C899D8922
:10110000AE89BF89EFEFCE1ADE0AEE0AFE0AC816D4
:10111000D906EA06FB0658F0F1E04F1651046104C7
:10112000710461F192E0C92ED12CE12CF12CA601C1
:10113000B701F801808191810E94D9056130710564
:101140008105910570F622E0C216D104E104F10494
:1011500008F0F0C0E12CF12C6701C39412C08C8917
:101160009D89AE89BF89481659066A067B0608F034
:10117000A8CF452B462B472B09F0B0CFE12CF12C03
:101180006701B601C701DF91CF911F910F91FF90C9
:10119000EF90DF90CF90BF90AF909F908F907F9017
:1011A0006F905F904F900895CE010E94D9056B011A
:1011B0007C01F2E0CF16D104E104F10458F22FEFE4
:1011C000C216DC04EC04FC0409F46DC08C899D8912
:1011D000AE89BF89C816D906EA06FB0690F248898F
:1011E00059896A897B89452B462B472B39F2640143
:1011F0007501EFEFCE1ADE0AEE0AFE0AC816D9060E
:10120000EA06FB0628F022E0C22ED12CE12CF12CBC
:10121000A601B701F801808191810E94D905AB0137
:10122000BC01413051056105710509F493CF4F3F71
:10123000540764077407B9F18C899D89AE89BF8909
:101240002C013D01452B462B472B91F14C845D84AD
:101250006E847F8422E0421651046104710430F0F0
:10126000481659066A067B0608F438CF2401350172
:1012700035CF09F46FCF8C899D89AE89BF898816D7
:101280009906AA06BB0608F065CF86019701A4015E
:10129000B501CE010E94BC049C01892B29F12130AB
:1012A000310509F057CF8FEFF82EEF2C670169CF8A
:1012B000C114D104E104F104C9F2C414D504E60454
:1012C000F70408F047CF2FEF3FEF8901A601B701E0
:1012D000CE010E94BC049C01892B09F781E088168D
:1012E0009104A104B10428F6CC86DD86EE86FF8643
:1012F00088899989AA89BB8910979040804009F410
:1013000040CF4C895D896E897F89425051096109BE
:101310007109481759076A077B0708F432CF01970C
:10132000A109B109888B998BAA8BBB8B8D818160B8
:101330008D8327CF4C885D886E887F88BECF8F9243
:101340009F92AF92BF92CF92DF92EF92FF920F9354
:101350001F93CF93DF93CDB7DEB72C970FB6F894DA
:10136000DEBF0FBECDBF8B879C8769837A83DC018C
:101370001E96CD90DD90ED90FD90B0E2CB0ED11C8D
:10138000E11CF11CE0E2EE16F104E0F0AB85BC8557
:1013900056961D921D921D921D9284E090E02C960F
:1013A0000FB6F894DEBF0FBECDBFDF91CF911F9176
:1013B0000F91FF90EF90DF90CF90BF90AF909F90F4
:1013C0008F900895EB85FC8500811181868997892E
:1013D000A08DB18D109790408040F9F2A601517018
:1013E00060E070E0452B462B472B09F0C0C001960A
:1013F000A11DB11D868B978BA08FB18F4289538918
:1014000064897589411551056105710509F4C3C0E9
:10141000F8018285938501978D2C9E2CAF2CB12CE1
:10142000A6949794879488229922A12C8B829C82DF
:101430001D821E8289288A288B2809F098C0C8013D
:101440000E94D9056F83788789879A872F8138858D
:1014500049855A85223031054105510508F4B1C04E
:101460008F809884A984BA848B208A2089208094D4
:1014700009F4A4C0F80184899589A689B7898F8069
:101480009884A984BA8488169906AA06BB06C8F16E
:10149000A980BA80AB2809F479CFAB85BC85529678
:1014A0004D915D916D917D915697CD010E943708C8
:1014B0006F83788789879A878F809884A984BA8474
:1014C00081149104A104B10409F47EC09401A50122
:1014D000213031054105510509F473C02F3F320712
:1014E0004207520709F46AC0BA01A901C8010E9463
:1014F0007602892B09F062C0F80184899589A68952
:10150000B7898F809884A984BA84EB85FC85828A08
:10151000938AA48AB58A9401A50122503109410910
:1015200051090297A109B109281739074A075B0732
:1015300098F4F801A285B3850E94B42724A535A5A7
:1015400046A557A54B015C01820E931EA41EB51E35
:101550008B829C82AD82BE828B809C80AD80BE805F
:10156000AB85BC8556968D929D92AD92BD92EB85D2
:10157000FC85C686D786E08AF18A005D1F4FF1E0C0
:10158000DF220C0D1D1DAB85BC855A960D931D9356
:1015900080E090E004CFD80118962D913D91C601CE
:1015A000D70145E0B695A795979587954A95D1F7C8
:1015B00082179307A105B105D0F2E8CE81E090E053
:1015C000EECE82E090E0EBCE87E090E0E8CE2F9286
:1015D0003F924F925F926F927F928F929F92AF92C3
:1015E000BF92CF92DF92EF92FF920F931F93CF9310
:1015F000DF9300D000D000D00F92CDB7DEB78E833E
:101600009F83DC010D90BC91A02DAA83BB83FB01BD
:101610006F0181918F32E1F38C35D1F3EE81FF813F
:101620001682178210861186D6018C91803208F4BA
:101630005DC17C964F01EA81FB81F096EC83FD83CE
:101640004BE050E060E270E0C4010E945428F601D3
:101650001081113208F452C0A12CB12C68E0E62EA2
:10166000F12C35016394C5011F3209F47FC01C358C
:1016700009F47CC01E3209F45EC0AE14BF04F0F55C
:10168000113808F464C0103A70F1103E10F01D3F9C
:1016900050F1612F70E08FE691E00E945B28892B6A
:1016A00069F5F401EA0DFB1D10838FEFA81AB80A43
:1016B000C3013C01FFEF6F1A7F0AF601E80FF91F23
:1016C0001081113288F6C60CD71CAE81BF815C96A2
:1016D0008C91853E29F485E0AE81BF815C968C9328
:1016E000B4E0B98365C0F601E60DF71D2081203412
:1016F00028F02F3708F41EC127FD19C196E0A92E46
:10170000B12CC50127960FB6F894DEBF0FBECDBF32
:10171000DF91CF911F910F91FF90EF90DF90CF90CD
:10172000BF90AF909F908F907F906F905F904F9001
:101730003F902F900895BBE0EB16F104F9F2C3013E
:1017400048E0A42EB12C5BE0E52EF12CB2CF612F46
:1017500070E08FE691E00E945B28892B79F68FE993
:10176000810F8A3108F09DCF10529BCF8601060D64
:10177000171D6801D8018C910F5F1F4F8F32C9F37D
:101780008C35B9F3AB2809F4B9CFAE81BF815C9633
:101790008C91853E21F485E0EE81FF81848F81E08C
:1017A000F601908191320CF0DFC0880F880F898399
:1017B000E981AE81BF819796EC939797ED90FD906C
:1017C0001297CD010E94B4065C01892B09F099CFD4
:1017D0001701F0E32F0E311CAE81BF8156964D905C
:1017E0005D906D907D90F701848D958DA68DB78D60
:1017F000481659066A067B0679F0C7010E94130253
:10180000892BD1F131E0A32EB12C7BCFD7015C968F
:101810004D925D926D927D92AE81BF815A96ED910F
:10182000FD915C9780818115E9F01385812F8F737D
:1018300014968C93838583FD08C04BE050E0B4017F
:10184000CF010E943E28892B69F160E070E08E8113
:101850009F810E949F09009709F4BECF5C01049705
:1018600009F04FCFE98184E0A82EB12CE11149CFD6
:1018700025E0A22EB12C45CF01E010E09201A3019A
:10188000B101D70111968C910E946500892B09F452
:10189000BDCFAFEFBFEFCD01F701848F958FA68F3E
:1018A000B78FB0CFB981B1112CCF14FFE1CFAE818A
:1018B000BF811E96ED91FD91F1704C815D814E0FBF
:1018C0005F1FFA01828D938DA0E0B0E0EA81FB8179
:1018D0002081233021F4FA0124893589D901EE8150
:1018E000FF8186839783A087B187AACE80E8AE81E7
:1018F000BF8197968C939797CD0127960FB6F89452
:10190000DEBF0FBECDBFDF91CF911F910F91FF9032
:10191000EF90DF90CF90BF90AF909F908F907F908F
:101920006F905F904F903F902F900C94B4062D3F96
:1019300008F0E4CE47E050E0E8E0EE16F10411F0E4
:101940004AE050E0A416B50608F0D8CE0296F4019D
:10195000EA0DFB1D1083F5013196E80DF91D32E00B
:10196000A30EB11C2083A5CE80E01FCF8F929F9243
:10197000AF92BF92CF92DF92EF92FF920F931F939D
:10198000CF93DF93EC01E880F98024E030E0670139
:1019900080E3C80ED11C8E889F88A88CB98C8114D6
:1019A0009104A104B10409F457C0F701848D958D09
:1019B000A68DB78D88169906AA06BB06E9F0C70161
:1019C0000E9413029C01892B91F11E8A1F8A188E96
:1019D000198EC901DF91CF911F910F91FF90EF9068
:1019E000DF90CF90BF90AF909F908F900895F701B8
:1019F000848E958EA68EB78EEA8DFB8D9081911583
:101A000069F183858F738C83953E39F09E3229F07E
:101A10008F3019F08F71883021F560E070E0CE01D1
:101A20000E949F099C01892B09F4B5CFCECF01E01C
:101A300010E09401A501B601F70181810E946500C3
:101A4000892BA9F2AFEFBFEFCD01F701848F958FFE
:101A5000A68FB78F9801B9CF232B19F024E030E07F
:101A6000B4CF20E030E0B5CFEF92FF920F931F93F9
:101A7000CF93DF9300D000D000D0CDB7DEB78D83F9
:101A80009E83DC01ED90FD901297CD010E94B4067B
:101A90009C01892B61F5AD81BE8156962D913D91BA
:101AA0004D915D9129833A834B835C83F701848D4B
:101AB000958DA68DB78D281739074A075B0729F53D
:101AC000AD81BE815A96ED91FD915C978081853EF6
:101AD000D9F18115C9F161E070E0CD010E949F0943
:101AE0009C010097C1F2049711F427E030E0C9018E
:101AF0000F900F900F900F900F900F90DF91CF915C
:101B00001F910F91FF90EF900895C7010E9413025B
:101B10009C01892B61F701E010E029813A814B811A
:101B20005C81B701605D7F4FD70111968C910E9457
:101B30006500892B89F1AFEFBFEFCD01F701848FED
:101B4000958FA68FB78F0CC0ED81FE81468957898E
:101B5000608D718DC7010E942C049C01892B19F0A6
:101B600021E030E0C4CFAD81BE815A96ED91FD9168
:101B700080E2DF011D928A95E9F7ED81FE81A28D59
:101B8000B38D7C968BE001900D928A95E1F781E010
:101B9000D70114968C93ABCF29813A814B815C811C
:101BA000D7015C962D933D934D935D9389CF8F9292
:101BB0009F92AF92BF92CF92DF92EF92FF920F93DC
:101BC0001F93CF93DF93EC016A017B011C828FEF9F
:101BD000B82EAB2C45018C8E9D8EBE8EBF8E4FEFE6
:101BE000C416DC04EC04FC0469F5FE01E25DFD4F63
:101BF0002081318188A98B3E49F0885E823030F0A7
:101C000025353A4A81F482E090E00FC025358AEA12
:101C1000380781F14BAD5CADCA0101978423952350
:101C2000892B09F449C083E090E0DF91CF911F91A7
:101C30000F91FF90EF90DF90CF90BF90AF909F906B
:101C40008F90089501E010E09601AB01BE01605D48
:101C50007F4F89810E946500892B39F08C8E9D8E83
:101C6000BE8EBF8E84E090E0E0CFCC8EDD8EEE8E17
:101C7000FF8EBBCFFE01EE57FF4F808191818634EE
:101C8000914409F454C04BAD5CADCA010197842363
:101C90009523892B09F0B7CF4115524009F0B3CFF6
:101CA0008DAD811509F4AFCF90E0AC014A95842346
:101CB000892B09F0A8CF0FC04115524009F0B3CFCE
:101CC0008DAD811509F4AFCF90E0AC014A95842326
:101CD000892B09F0A8CF8EAD9FAD892B09F490CF49
:101CE000FE01E05CFF4F80818150990B029708F064
:101CF00087CF319680819181892B09F481CF3296EB
:101D0000808191818038910540F43D968081918158
:101D1000A281B381AB2B09F473CFCA5BDF4F8881FB
:101D20009981892B09F46CCF80E090E07ECF3296C8
:101D3000808191818435934309F0A5CF32968081CB
:101D400091818233904209F09ECF329680819181B9
:101D50008032904209F097CFE7CF8F929F92AF9257
:101D6000BF92CF92DF92EF92FF920F931F93CF9388
:101D7000DF93CDB7DEB7A9970FB6F894DEBF0FBEDD
:101D8000CDBF6B01F42EDB011D921D920E94B901A3
:101D9000019609F406C200912E0210912F0201153E
:101DA000110509F404C2F60100831183E894F0F8E8
:101DB000D8018C918115F9F011968C910E945F00E9
:101DC00080FD19C0F11411F082FDEEC180E090E0B9
:101DD000A9960FB6F894DEBF0FBECDBFDF91CF91AD
:101DE0001F910F91FF90EF90DF90CF90BF90AF9039
:101DF0009F908F900895F801108281810E94610068
:101E000080FD90C1F11411F082FDCEC160E070E060
:101E1000AB01C8010E94D70D8230910509F48CC135
:101E20008430910509F4C6C1029708F082C1F80117
:101E300083AD94AD8115924009F07BC1D8015C96C9
:101E40008D909D90AD90BD90898E9A8EAB8EBC8EFC
:101E5000F801EA5BFF4F808191816C01E12CF12C4C
:101E6000892B29F43E96C080D180E280F380F8016E
:101E7000C08ED18EE28EF38EE05CFF4FA081F80120
:101E8000A3838FEF8A0F823008F053C1F5ADF9A715
:101E90008F2F90E0F80182871386009709F449C1DB
:101EA0009C012A958223892B09F043C1C8018F5BCD
:101EB0009F4FFC010190F081E02DE98BFA8B4F01DF
:101EC000F80180869186882D8F7090E0892B09F02B
:101ED00030C1C8018D5B9F4FFC01808191814C0115
:101EE0008D8E9E8E1F8E18A2892B61F4C801805B97
:101EF0009F4FFC0180809180A280B3808D8E9E8E4A
:101F0000AF8EB8A2F80106ACF7ADE02DED8BFE8BDD
:101F1000309709F40EC1B0E09601A7010E94B427E2
:101F20006DA37EA38FA398A789899A89929582959C
:101F30008F7089279F708927A0E08E0F9F1FA11D9A
:101F4000B11D8DA09EA0AFA0B8A4880E991EAA1E98
:101F5000BB1E89A29AA2ABA2BCA22D8D3E8D4F8D35
:101F600058A1281539054A055B0508F4E2C0B901F6
:101F7000CA01681979098A099B09E9A52E2F30E061
:101F800040E050E06E1771058105910508F4D1C05D
:101F90000E948C27263FFFEF3F074F07FFE05F07B8
:101FA00008F0C7C0698D7A8D8B8D9C8D680D791D69
:101FB0008A1D9B1D69A37AA38BA39CA3898C9A8CF1
:101FC000AB8CBC8C6D897E89860E971EA11CB11CC2
:101FD0008D8E9E8EAF8EB8A2C901DA010296A11D28
:101FE000B11D8D8B9E8BAF8BB88F263F9FEF39072E
:101FF0004105510508F0E1C0263F3F40410551052C
:1020000008F093C12D893E894F89588DD801549687
:102010002D933D934D935D93898C9A8CAB8CBC8CA6
:1020200018968D929D92AD92BD928D8C9E8CAF8CA8
:10203000B8A08D929D92AD92BD9289A09AA0ABA0BE
:10204000BCA014968D929D92AD92BD9289889A887B
:10205000892809F46EC08D8D9E8DAF8DB8A18DA09D
:102060009EA0AFA0B8A4880D991DAA1DBB1D4D89C7
:102070005E896F89788D440F551F661F771F8D8885
:102080009E88AF88B88C480D591D6A1D7B1D4A017A
:102090005B01B694A794979487942D892170298B1E
:1020A0001A8A1B8A1C8AA401B50189889A88AB8880
:1020B000BC88480D591D6A1D7B1D21E0F80180A7D1
:1020C00091A7A2A7B3A7CA01DB0181509E4FAF4FD2
:1020D000BF4F892F9A2FAB2FB0E0A6959795879584
:1020E000C816D906EA06FB0620F1AFEFBFEFCD0117
:1020F000F801808B918BA28BB38B84879587A68701
:10210000B78780E88583D8012C9380912C02909129
:102110002D02019680932C0290932D0216968D939A
:102120009D9354CE83E090E053CE2430310509F4E2
:1021300041C08DE090E04CCEF801EA50FE4F7E01A8
:102140002FEFE21AF20AC8018A5C9D4FD701408145
:102150005181628173814D935D936D937D937096F0
:10216000E817F907A1F7670130E1C30ED11C06C0DB
:10217000B4E0EB0EF11CEC14FD04B9F2D7014D9163
:102180005D916D917D9123E030E041155105610530
:10219000710571F3C8010E94D70D9C01029740F7A9
:1021A00046CE8BE090E014CE8AE090E011CE8CE039
:1021B00090E00ECE81E090E00BCE8D889E88AF88B7
:1021C000B88CD80154968D929D92AD92BD92898C17
:1021D0009A8CAB8CBC8C18968D929D92AD92BD92D0
:1021E0008D8C9E8CAF8CB8A08D929D92AD92BD923D
:1021F00089A09AA0ABA0BCA014968D929D92AD929E
:10220000BD92F801E65AFF4F8081918189889A88B2
:1022100088299929892B09F08CCFF801E45AFF4FBE
:1022200080819181A281B381F80180A791A7A2A7A3
:10223000B3A78D899E89AF89B88D880F991FAA1F72
:10224000BB1F880F991FAA1FBB1F81509E4FAF4F06
:10225000BF4F892F9A2FAB2FB0E0A6959795879502
:10226000C816D906EA06FB0608F463CFAFEFBFEF46
:10227000CD01808B918BA28BB38B84879587A687AA
:10228000B78780E88583E05AFF4F8081918101976D
:1022900011F023E038CF498D5A8D6B8D7C8D4F5FC7
:1022A0005F4F6F4F7F4FC8010E942C04892B89F725
:1022B000D80115961C921597D0968D919D910D90F1
:1022C000BC91A02D82359245A146B14411F7F80189
:1022D000EC5EFD4F80819181A281B381823792476C
:1022E000A144B146B1F6F801E45DFD4F80819181D2
:1022F000A281B3810097A545BA4A59F674978081A7
:102300009181A281B381F801808B918BA28BB38BD9
:10231000E45EFD4F80819181A281B381F8018487C1
:102320009587A687B78723E0EECE2D893E894F8912
:10233000588DD80154962D933D934D935D93898C80
:102340009A8CAB8CBC8C18968D929D92AD92BD925E
:102350008D8C9E8CAF8CB8A08D929D92AD92BD92CB
:1023600089A09AA0ABA0BCA014968D929D92AD922C
:10237000BD9289889A88892809F4DBCE8D8D9E8D3F
:10238000AF8DB8A18DA09EA0AFA0B8A4880D991D57
:10239000AA1DBB1D4D895E896F89788D440F551F1D
:1023A000661F771F22E08ACECF93DF9300D000D044
:1023B00000D00F92CDB7DEB78B839C83CB016D83AA
:1023C0007E834F8369839A83CE0101960E94B9016F
:1023D000019659F1E0912E02F0912F02309729F0E9
:1023E00010922E0210922F021082EB81FC81309706
:1023F00031F011821082E0932E02F0932F028F8130
:1024000090E0811109C027960FB6F894DEBF0FBE89
:10241000CDBFDF91CF91089540E0BE016D5F7F4F4A
:10242000CE0105960E94AD0EEECF8BE090E0EBCF93
:102430008F929F92AF92BF92CF92DF92EF92FF92D4
:102440000F931F93CF93DF93CDB7DEB7EA970FB605
:10245000F894DEBF0FBECDBF6C016BA77CA7142F15
:10246000892B09F40DC1042F0F730DA7402FBE0156
:10247000675D7F4FCE018B960E94AD0E7C01892B4C
:10248000B9F0F60110821182C701EA960FB6F894EE
:10249000DEBF0FBECDBFDF91CF911F910F91FF9097
:1024A000EF90DF90CF90BF90AF909F908F90089566
:1024B00089A59AA5D6018D939D9389839A836BA54F
:1024C0007CA5CE0101960E94E70A212F2C7100976E
:1024D00009F0C1C088A587FDD7C0211509F4C2C085
:1024E00012FDD6C08D81817109F041C113FDE1C09B
:1024F000E9A5FAA5E9AFFAAFAB8DBC8DE9ADFAADB0
:10250000448D558D668D778DF601448F558F668F7E
:10251000778FA0A3B1A35A964D915D915C9760E02F
:1025200070E0E9ADFAAD8081833029F454968D9145
:102530009D915697BC01F60146835783608771874A
:102540005C968D909D90AD90BD9089AA9AAAABAAF9
:10255000BCAAD6011A968D929D92AD92BD92E9AD1C
:10256000FAAD868197811C978D939D938DA41A96C1
:102570008D921C9219961D921D921D921D92F6012C
:10258000108A118A128A138A86010E5D1F4F0DABC5
:102590001EAB80E092E0D801FC011D923197E9F773
:1025A00085FE72CF89A89AA8ABA8BCA88114910413
:1025B000A104B10409F468CFD60150968D929D9282
:1025C000AD92BD92E9ADFAAD82859385812C982EAE
:1025D000A92EB12C880C991CAA1CBB1C8DA69EA6EA
:1025E000AFA6B8AA8DA49EA4AFA4B8A809A91AA999
:1025F0002BA93CA980169106A206B30608F0BBC021
:10260000D6018D919D910E94D905AB01BC0142304C
:1026100051056105710508F4A1C089A89AA8ABA865
:10262000BCA80DA51EA52FA538A9801A910AA20A3B
:10263000B30A89AA9AAAABAABCAA4F3F5407640757
:10264000740781F6F601448B558B868B778B51E0AE
:10265000E52EF12C16CF211519F08430910501F1EA
:102660007C010FCF8D8184FD17C011FF41CF80FD0C
:102670007EC089A49AA489AE9AAEAB8DBC8D3ECFA4
:1026800089E0E82EF12C00CF46E0E42EF12CF9CEC3
:1026900038E0E32EF12CF5CE24E0E22EF12CF1CE41
:1026A000CE0101960E94340D0097D1F6FDA5F86089
:1026B000FDA70E94B401EB8DFC8D66877787808B28
:1026C000918BEB8DFC8D668B778B808F918FAB8D93
:1026D000BC8D89A49AA489AE9AAE5A968D919D918B
:1026E0005C974C0189AA9AAA1BAA1CAAE9ADFAAD6B
:1026F0008081833049F454968D919D9156975C0169
:1027000089AA9AAAABAABCAA80E21B968C93AB8D2D
:10271000BC8D5A961D921C925B97E9ADFAAD8081F3
:10272000833019F454961D921C92AB8DBC8D5C962F
:102730001D921D921D921C925F9781E0E9ADFAAD4A
:10274000848389A89AA8ABA8BCA889288A288B2842
:1027500009F066C00DA500640DA7D0CEF601448B2C
:10276000558B868B778B72E0E72EF12C8ACE97E023
:10277000E92EF12C86CED60154964D935D936D9340
:102780007D9389A99AA99170A0E0B0E0892B8A2B4A
:102790008B2B09F479CEE9A5FAA59A01AB01225059
:1027A00031094109510984899589A689B789029718
:1027B000A109B109281739074A075B07A0F6A285C6
:1027C000B3850E94B42704A515A526A537A5DC016D
:1027D000CB01800F911FA21FB31F10979040804024
:1027E00011F29AA8ABA8BCA8292D3A2D4B2D50E088
:1027F000469537952795280F391F4A1F5B1FD6012D
:1028000058962D933D934D935D9301E010E06DA993
:102810007EA981810E946500892B09F435CE17CFEE
:10282000DF015C968D909D90AD90BD908DAA9EAA83
:10283000AFAAB8AE20E030E0890149A95AA96BA936
:102840007CA9CE0101960E948C07009709F008CF61
:102850004DA95EA96FA978AD89A59AA50E942C04FF
:10286000E9A5FAA5E9AFFAAF49A95AA96BA97CA9CC
:102870004150510961097109DF011C964D935D9327
:102880006D937D93AB8DBC8D892B09F463CFDFCE27
:102890008F929F92AF92BF92CF92DF92EF92FF9270
:1028A0000F931F93CF93DF93CDB7DEB72E970FB65D
:1028B000F894DEBF0FBECDBF7C014B016A012B83B4
:1028C0003C83D9011D921D92BE016F5F7F4F0E9414
:1028D000DA01892B09F0A2C0F70187858D831E825A
:1028E00081119FC0868580FF5CC180899189A28902
:1028F000B3894285538564857585481B590B6A0BDE
:102900007B0B4C155D056105710508F432C1C114DE
:10291000D10409F486C0AC01517060E070E0452B31
:10292000462B472B09F0AFC0A980BA80F50102857C
:10293000138501501109492F5A2F6B2F6695579512
:102940004795042315230115110509F47FC0D7010C
:1029500054964D915D916D917D919A01AB012250FC
:10296000310941095109F50184899589A689B789F9
:102970000297A109B109281739074A075B0708F030
:10298000B7C00284F385E02DDF010E94B427D50192
:102990009C962D913D914D915D91DC01CB01820F73
:1029A000931FA41FB51F10979040804009F4A0C04A
:1029B0009C01AD01200F311F411D511D2B873C870C
:1029C0004D875E874D2D469550E04F831886411503
:1029D000510509F494C0CA01800F911FE817F90747
:1029E00028F4CF01801B910B8F8398870F81188566
:1029F0002B853C854D855E85B401D50111968C9162
:102A00000E946500892B09F0B6C0F701868587FD15
:102A1000E4C08F81182F110F00E04CC029E02D83F6
:102A20001E828D819E812E960FB6F894DEBF0FBE5A
:102A3000CDBFDF91CF911F910F91FF90EF90DF906D
:102A4000CF90BF90AF909F908F900895892B8A2B45
:102A50008B2B09F098C0F7014681578160857185FD
:102A6000423051056105710508F442C04F3F5407DB
:102A70006407740709F47FC0D70154964D935D93A2
:102A80006D937D936ACFA7014E5D5F4F49875A874B
:102A9000BC01717000E012E0061B170BC016D106D6
:102AA00008F48601E985FA856E0F7F1FA801C4012D
:102AB0000E944B28C01AD10AAB81BC818D919D9197
:102AC000800F911F9E938E93800E911EF701808937
:102AD0009189A289B389800F911FA11DB11D808B9F
:102AE000918BA28BB38BC114D10409F014CF99CF71
:102AF00082E0F701878722E02D831E8292CFD701E3
:102B000058962D913D914D915D918B859C85AD851C
:102B1000BE85281739074A075B0709F446C0F70145
:102B2000868587FD47C097012E5D3F4F29873A87ED
:102B300001E010E02B853C854D855E8569857A85B1
:102B4000D50111968C910E946500892BA1F42B85EB
:102B50003C854D855E85D70158962D933D934D93C9
:102B60005D935C9750968D919D910D90BC91A02D99
:102B70008FCF6A01CCCE81E0D7011F968C93E1E024
:102B8000ED831E824ECFD70154964D915D916D918C
:102B90007D9158978D919D910E94D905AB01BC0103
:102BA0005FCF47E04D831E823CCFD7019296A98725
:102BB000BA87CDCFC701829689879A8701E010E056
:102BC000BC01D50111968C910E946800892B99F661
:102BD000F70186858F778687ABCF808D918DA28D0B
:102BE000B38D2B853C854D855E85821B930BA40B95
:102BF000B50B0F81188580179107A105B10508F065
:102C000008CFB82FBB0FA82DB90DA7014E5D5F4FA0
:102C100049875A8780E092E0FA0101900D9201976E
:102C2000E1F7F7CE6F927F928F929F92AF92BF9211
:102C3000CF92DF92EF92FF920F931F93CF93DF9388
:102C4000CDB7DEB72E970FB6F894DEBF0FBECDBF5F
:102C50007C015B016A012B833C83D9011D921D928B
:102C6000BE016F5F7F4F0E94DA01892B09F0E3C03C
:102C7000F70187858D831E828111E0C0268521FFA3
:102C8000B8C180899189A289B389AC01BD014C0D7D
:102C90005D1D611D711D481759076A077B0708F400
:102CA00065C1C114D10409F429C1AC01517060E0BF
:102CB00070E0452B462B472B09F0D7C089809A80BE
:102CC000F40162847384F1E06F1A7108492F5A2F5E
:102CD0006B2F669557954795642275226114710490
:102CE00079F5892B8A2B8B2B09F067C1D7011696B2
:102CF0004D915D916D917D91411551056105710574
:102D000009F460C1413051056105710509F4FBC04A
:102D10004F3F54076407740709F463C1D701549601
:102D20004D935D936D937D93589716968D919D91DC
:102D30000D90BC91A02D892B8A2B8B2B09F41AC1E5
:102D4000D7011E968C911E9787FD1FC1F7018489BC
:102D50009589A689B7899C01AD01225031094109A5
:102D60005109F40184899589A689B7890297A10937
:102D7000B109281739074A075B0708F0C4C0028465
:102D8000F385E02DDF010E94B427D4019C960D91BC
:102D90001D912D913D91060F171F281F391F0115F9
:102DA00011052105310509F4AEC0C801D901860D10
:102DB000971DA11DB11D8B879C87AD87BE87AD2D4B
:102DC000A695B0E0AF831886109709F4A3C0CD0193
:102DD000860D971DE817F90728F48F0106191709C2
:102DE0000F8318870F8118852B853C854D855E855F
:102DF000B501D40111968C910E946800892B09F0CD
:102E0000F0C0F701808D918DA28DB38D0B851C854F
:102E10002D853E85801B910BA20BB30B2F8138852E
:102E200082179307A105B10508F405C1EF811E2F94
:102E3000110F00E035C0E9E0ED831E828D819E8197
:102E40002E960FB6F894DEBF0FBECDBFDF91CF91A7
:102E50001F910F91FF90EF90DF90CF90BF90AF90B8
:102E60009F908F907F906F90089597012E5D3F4FB8
:102E700029873A87917000E012E0081B190BC016F1
:102E8000D10608F48601A801B50129853A85820F8B
:102E9000931F0E944B28D7011E968C9180688C93BB
:102EA000C01AD10AEB81FC8180819181800F911F32
:102EB00080839183A00EB11EF70180899189A28938
:102EC000B389800F911FA11DB11D808B918BA28BA7
:102ED000B38B4285538564857585481759076A0702
:102EE0007B0710F4AC01BD01F7014287538764876B
:102EF0007587C114D10409F0D8CE26852064D70186
:102F00001E962C939BCF82E0F701878702E00D830A
:102F10001E8294CFF70180899189A289B389408D5F
:102F2000518D628D738D0B851C852D853E854017D7
:102F300051076207730709F460C0428553856485B1
:102F4000758584179507A607B70708F45CC0870145
:102F50000E5D1F4F09871A870B851C852D853E85C1
:102F6000F701008F118F228F338F84CF6C01C094B3
:102F7000D09497CEF7014683578360877187D70136
:102F80001E968C911E9787FFE1CE58962D913D910C
:102F90004D915D91F701B296E987FA8701E010E063
:102FA000BF01D40111968C910E946800892BC9F44D
:102FB000F70186858F778687C9CEF70144895589C1
:102FC00066897789C7010E943708AB01BC014115AA
:102FD00051056105710509F095CED7011E962C911A
:102FE0008DCF81E0D7011F968C93E1E0ED831E82A7
:102FF00025CF07E00D831E8221CF97012E5D3F4F25
:1030000029873A87A9CF97012E5D3F4F29873A87B5
:1030100001E010E02B853C854D855E8569857A85CC
:10302000D40111968C910E946500892BD1F6F7018D
:103030008089918991CFA7014E5D5F4F49875A875B
:10304000F82FFF0FEA2DFB0D80E092E0DA010190EE
:103050000D920197E1F7D7011E968C918F778C9393
:10306000E5CEEF92FF920F931F93CF93DF9300D0A3
:1030700000D0CDB7DEB77C01009789F0DC01ED917F
:10308000FD911297309759F08081811541F0129689
:103090002D913D91868197812817390769F089E044
:1030A00090E00F900F900F900F90DF91CF911F91B4
:1030B0000F91FF90EF90089581810E945F0080FD45
:1030C000EECFF701868586FF4DC0208131812983AF
:1030D0003A8387FD4DC0D7015C964D915D916D910E
:1030E0007D9189819A810E942C04892BF1F5F70149
:1030F00000A111A1D8011B968C9180628C9326812E
:103100003781A085B18540815181F801228F338FAD
:10311000FA012081233021F4CD01F801848B958BB5
:10312000F70182859385A485B585F801848F958FF5
:10313000A68FB78F0E94B401D80156966D937D93E8
:103140008D939D9318971D921C9281E0E981FA81DD
:103150008483CF010E944403D7011E962C912F7BBC
:103160002C939FCF80E090E09CCF81E090E099CFBE
:10317000208D318D428D538D01E010E0B7016E5DE1
:103180007F4FA981BA8111968C910E946800892B8A
:1031900061F7F70186858F7786879DCFCF93DF9381
:1031A00000D000D0CDB7DEB78B839C830E9431184E
:1031B0009C01892B41F0C9010F900F900F900F9047
:1031C000DF91CF910895BE016F5F7F4F8B819C810E
:1031D0000E94DA019C01892B61F4EB81FC81108251
:1031E0001182C9010F900F900F900F90DF91CF9136
:1031F000089529E030E0C9010F900F900F900F90D3
:10320000DF91CF9108952F923F924F925F926F92EC
:103210007F928F929F92AF92BF92CF92DF92EF9266
:10322000FF920F931F93CF93DF93CDB7DEB72C9709
:103230000FB6F894DEBF0FBECDBF1C014A015B0183
:10324000BE016F5F7F4F0E94DA01892B09F04AC0EF
:10325000D1011F968C911F978F831886811127C0EB
:103260001A962D913D914D915D9129873A874B8713
:103270005C8712964D905D906D907D9054972815C7
:1032800039054A055B0540F41E968C9181FD2EC0E0
:1032900089849A84AB84BC84D10150961D921D927E
:1032A0001D921D9281149104A104B10421F58F8116
:1032B00098852C960FB6F894DEBF0FBECDBFDF9178
:1032C000CF911F910F91FF90EF90DF90CF90BF9023
:1032D000AF909F908F907F906F905F904F903F90B6
:1032E0002F90089529E02F831886E1CFF101108AED
:1032F000118A128A138A09811A81F80182859385BD
:1033000020E0382F492F50E0220F331F441F551F54
:103310002B833C834D835E8341145104610471040B
:1033200009F078C0D1011696CD90DD90ED90FD901A
:10333000C114D104E104F10409F4C8C0F101C48A44
:10334000D58AE68AF78A40885188628873882B81FB
:103350003C814D815E81281539054A055B05F0F1F8
:1033600042C1C1010E9437086B017C01C114D10424
:10337000E104F10409F47DC1BFEFCB16DC04EC04D9
:10338000FC0409F49BC0E2E0CE16D104E104F10490
:1033900008F4AAC0F80184899589A689B789C81656
:1033A000D906EA06FB0608F09FC02B813C814D81BF
:1033B0005E81821A930AA40AB50AD1015496CD926D
:1033C000DD92ED92FD9218974D905D906D907D90FD
:1033D000281539054A055B0508F005C12B813C819C
:1033E0004D815E81420E531E641E751ED1015096A2
:1033F0004D925D926D927D9216978C91A601B701C8
:1034000081FDAFCFD1018D919D910E94D9056B01B6
:103410007C01B2CF31E0431A510861087108B40150
:10342000C50161507109810991092B813C814D8150
:103430005E810E948C2769017A01B201C3012B8150
:103440003C814D815E810E948C27C216D306E40622
:10345000F50608F467CF8B819C81AD81BE81B09564
:10346000A095909581959F4FAF4FBF4F482259220D
:103470006A227B22D10150964D925D926D927D928F
:10348000CD90DD90ED90FD90C114D104E104F104E4
:1034900009F091C029853A854B855C852415350551
:1034A0004605570508F003CFD1011A964D925D925B
:1034B0006D927D928C9180648C93F9CE81E0D101E4
:1034C0001F968C93E1E0EF831886F1CE60E070E008
:1034D000AB01C1010E9437086B017C0131E0C316CA
:1034E000D104E104F10441F482E0D1011F968C93F0
:1034F000E2E0EF831886DBCEFFEFCF16DC04EC04AE
:10350000FC04E1F2D10116966D93DD928D93FD924C
:10351000F101648BD58A868BF78A4088518862884E
:103520007388C114D104E104F10409F010CFA201A1
:10353000517060E070E0F10182859385A485B585C6
:1035400084159505A605B70538F44286538664862A
:103550007586868580648687452B462B472B09F424
:10356000A6CED10158962D913D914D915D915C97DC
:103570002C153D054E055F0509F499CEA980BA804A
:103580001E968C91410187FD1BC0B2E28B0E911CEF
:1035900001E010E09601A701B401D50111968C91CC
:1035A0000E946500892B09F089CFF101C08ED18E70
:1035B000E28EF38E7CCE84189508A608B708C7CE95
:1035C000E2E28E0E911C01E010E0B401D5011196EB
:1035D0008C910E946800892B09F070CFF1018685DB
:1035E0008F778687D5CF480C591C6A1C7B1CC40179
:1035F0009170A0E0B0E0F101408A518A628A738A3A
:10360000109790408040D9F19601A70122503109CE
:1036100041095109F80184899589A689B7890297DA
:10362000A109B109281739074A075B0708F05CCFE1
:10363000A285B3850E94B42704A515A526A537A5A4
:10364000DC01CB01800F911FA21FB31F1097904088
:10365000804009F449CF892C9A2CAB2CB12CA6942C
:103660009794879464017501C80ED91EEA1EFB1E4B
:103670005ECFF101408851886288738858CF6D0110
:10368000760155CF0F931F93CF93DF9300D000D0D7
:1036900000D0CDB7DEB78C016B837C83892B09F416
:1036A0005CC040E0BE016F5F7F4FCE0103960E9479
:1036B000AD0E9C01892B79F0D8011D921D92C90194
:1036C0000F900F900F900F900F900F90DF91CF9170
:1036D0001F910F91089589819A818D839E83D801CE
:1036E0008D939D936B817C81C8010E94E70A9C01A8
:1036F000009769F5F80187A187FD19C0848184FFCF
:1037000029C0428D538DDA015A968D919D91A0E08A
:10371000B0E0ED81FE812081233021F4FA0124897B
:103720003589D901F80186839783A087B187AD8158
:10373000BE8116968D919D91F80182839383C80175
:103740000E94B4069C01892B09F4B9CFB5CF049728
:1037500009F0B2CF25E030E0AFCF29E030E0AFCFC5
:10376000CF93DF93EC01892B71F0E881F9813097D9
:1037700051F08081811539F02A813B8186819781C2
:103780002817390729F089E090E0DF91CF9108955B
:1037900081810E945F0080FDF6CF1882198280E04F
:1037A00090E0DF91CF9108950F931F93CF93DF9314
:1037B000EC018B01892B71F0E881F981309751F090
:1037C0008081811539F02A813B8186819781281774
:1037D000390761F089E090E00115110511F0F80159
:1037E0001186DF91CF911F910F91089581810E94E1
:1037F0005F0080FDEFCF0115110521F1F801118661
:10380000CE010E94B60C9C012B7F232B41F7F801BF
:1038100011868E899F89A88DB98D892B8A2B8B2B38
:1038200029F0B8018A8D9B8D0E94F80260E070E05B
:10383000CE010E949F099C012B7F232B81F680E003
:1038400090E0CFCFCE01DF91CF911F910F910C94DB
:10385000B4060F931F93CF93DF93CDB7DEB7AC972A
:103860000FB6F894DEBF0FBECDBF89A79AA76BA78E
:103870007CA740E0BE016F5F7F4FCE0189960E941A
:10388000AD0E8C01892B99F0EBA5FCA5EF2B19F05F
:10389000EBA5FCA51186C801AC960FB6F894DEBF67
:1038A0000FBECDBFDF91CF911F910F91089569A5F4
:1038B0007AA5CE0101960E94E70A8C01892BB9F402
:1038C00088A587FD1CC08BA59CA5009721F3FC0152
:1038D00011868F89988DA98DBA8D892B8A2B8B2B78
:1038E000D1F2BF018B8D9C8D0E94F802D4CF8BA5A5
:1038F0009CA5892B81F2EBA5FCA51186CCCF8BA5CD
:103900009CA506E010E0892B19F6C5CF4F925F9277
:103910006F927F928F929F92AF92BF92CF92DF92DF
:10392000EF92FF920F931F93CF93DF93CDB7DEB744
:103930002A970FB6F894DEBF0FBECDBF8B839C8352
:1039400069877A878A0140E0BE016F5F7F4FCE01B1
:1039500003960E94AD0E6C01892BF9F4E980FA8080
:10396000D801ED92FD92F70180899189A289B389EE
:1039700084889588A688B788A401B501425051096A
:1039800061097109481759076A077B07F0F0E98553
:10399000FA8580839183A283B383C6012A960FB6EA
:1039A000F894DEBF0FBECDBFDF91CF911F910F9175
:1039B000FF90EF90DF90CF90BF90AF909F908F904F
:1039C0007F906F905F904F900895D7012C91213098
:1039D00009F451C0D70194968D919D910D90BC91A1
:1039E000A02D8D839E83AF83B88700E010E028016F
:1039F000320117C080A991A9A2A9B3A9BF70892BD0
:103A00008A2B8B2B29F4EFEF4E1A5E0A6E0A7E0A80
:103A10000C5F1F4F1170F1E08F1A9108A108B108D7
:103A2000D9F00115110509F456C0F701E00FF11F97
:103A3000223001F780A991A9892B29F4BFEF4B1AF5
:103A40005B0A6B0A7B0A0E5F1F4F1170F1E08F1A41
:103A50009108A108B10829F7A985BA854D925D9210
:103A60006D927D92F701408A518A628A738A8581BC
:103A70008160858392CF22E0822E912CA12CB12CE3
:103A8000250132011AC06130710581059105D1F11E
:103A900028F4EFEF4E1A5E0A6E0A7E0AFFEF8F1AC5
:103AA0009F0AAF0ABF0AF70184899589A689B78959
:103AB00088169906AA06BB0678F6A401B501C701C7
:103AC0000E94D9056F3F760786079607E1F691E0D9
:103AD000C92ED12C62CF4D815E816F817885C7015F
:103AE0000E942C04892B99F78D819E81AF81B88526
:103AF0000196A11DB11D8D839E83AF83B887D70129
:103B00002C9193CF82E0C82ED12C47CF0F931F93D7
:103B1000CF93DF9300D000D000D0CDB7DEB78D8338
:103B20009E83892B91F0AD81BE81ED91FD9112971D
:103B3000309759F08081811541F012962D913D9179
:103B4000868197812817390781F029E029831A8215
:103B500089819A810F900F900F900F900F900F9086
:103B6000DF91CF911F910F91089581810E945F0095
:103B700080FDEBCFED81FE81878530E089831A825D
:103B80008111E6CF868581FF5AC080899189A289FB
:103B9000B389428553856485758584179507A60783
:103BA000B707B0F60190F081E02DEB83FC83892B01
:103BB0008A2B8B2B09F047C0AD81BE8116964D91A3
:103BC0005D916D917D911A9720E08901CD010E9450
:103BD0008C079C01ED81FE8116821782108611866A
:103BE000ED81FE8180899189A289B389828793873B
:103BF000A487B5878685806486872115310509F0FD
:103C000087C087FFA5CFAD81BE8158962D913D918C
:103C10004D915D915C9701E010E0BD016E5D7F4FBD
:103C2000EB81FC8181810E946800892B09F05DC0D5
:103C3000AD81BE811E968C918F778C9389CF27E0C2
:103C400029831A8285CFAD81BE8154964D915D91B5
:103C50006D917D918B819C810E94D9056F3F760784
:103C600086079607A9F16130710581059105D9F0A4
:103C7000AB81BC8154960D911D912D913D916017A2
:103C8000710782079307B0F5AD81BE8154960D91FF
:103C90001D912D913D915897AB01BC01CD010E9422
:103CA0008C079C019DCFED81FE8180899189A2893D
:103CB000B38982879387A487B58786858064868742
:103CC00082E022E029831A82ED81FE81878740CF3E
:103CD000ED81FE8180899189A289B389828793874A
:103CE000A487B58786858064868781E021E0298363
:103CF0001A82EACFED81FE8180899189A289B389F8
:103D000082879387A487B58786858064868779CFE5
:103D1000822F29833A83D8CF0F931F93CF93DF93BA
:103D2000CDB7DEB7CC55D1090FB6F894DEBF0FBEC4
:103D3000CDBF65969FAF8EAF659742E0BE016F5ACB
:103D40007F4FCE018D5A9F4F0E94AD0E9C01892B53
:103D500069F0C901C45ADF4F0FB6F894DEBF0FBE39
:103D6000CDBFDF91CF911F910F91089563962EAD36
:103D70003FAD639767963FAF2EAF679765966EAD81
:103D80007FAD659729A73AA725961FAE1EAE25974A
:103D9000CE0189960E94E70A9C01892BD1F6619693
:103DA0008FAD6197807A09F04BC08DA580FD8EC0E4
:103DB00009A51AA525964EAD5FAD259769965FAF0B
:103DC0004EAF6997DA015A962D913D91A90160E0B5
:103DD00070E06D964CAF5DAF6EAF7FAF6D9767963D
:103DE000AEADBFAD67979C91933069F184FD39C04A
:103DF00023964CAD5DAD6EAD7FAD2397C8010E949B
:103E00002C049C01892B09F0A4CF85EE6996AEADF8
:103E1000BFAD69978C9381E0F80184836D962CADDA
:103E20003DAD4EAD5FAD6D97232B242B252BE1F5DA
:103E300067968EAD9FAD67970E9444039C0189CF22
:103E400026E030E086CF6996EEADFFAD6997248914
:103E50003589B9016D964CAF5DAF6EAF7FAF6D9791
:103E6000C5CF67962EAD3FAD679729833A836D9690
:103E70004CAD5DAD6EAD7FAD6D974F835887698753
:103E80007A87CE0101960E94B4069C01892B09F025
:103E900060CFCE0101960E94B60C9C010097B1F054
:103EA000049709F056CFA4CF20E030E089016D9649
:103EB0004CAD5DAD6EAD7FAD6D97CE0189960E9424
:103EC0008C079C01892B09F044CFB2CF27E030E06A
:103ED00040CFAF92BF92CF92DF92EF92FF920F93BB
:103EE0001F93CF93DF93CDB7DEB7C654D1090FB67A
:103EF000F894DEBF0FBECDBF89AF9AAF42E0BE01DE
:103F0000695C7F4FCE01C9960E94AD0E7C01892B62
:103F100099F0C701CA5BDF4F0FB6F894DEBF0FBE42
:103F2000CDBFDF91CF911F910F91FF90EF90DF9068
:103F3000CF90BF90AF9008958FA998AD89839A8351
:103F400069AD7AADCE0101960E94E70A7C01009727
:103F500039F488A5807A51F106E0E02EF12CD9CF12
:103F60000497B9F68FA998AD89A79AA760E070E089
:103F7000AB01CE0189960E9437086BAF7CAF8DAF45
:103F80009EAF672B682B692BA9F40E94B40117E040
:103F9000E12EF12C20E030E089014BAD5CAD6DAD40
:103FA0007EADCE0189960E948C07B3CF88E0E82EC3
:103FB000F12CAFCF8BAD9CADADADBEAD81309105D9
:103FC000A105B10509F495C08F3F9F4FAF4FBF4F7B
:103FD00031F40E94B40191E0E92EF12CDBCF0E9474
:103FE000B40123966CAF7DAF8EAF9FAF23974BADDF
:103FF0005CAD6DAD7EAD8FA998AD0E947602892B28
:1040000051F70FA918AD7801F0E3EF0EF11C4AE06B
:1040100050E060E270E0C801C1960E9454282EE290
:10402000D801D0962C9380E11B968C93F801EA5B23
:10403000FF4F2396ACACBDACCEACDFAC2397A192C6
:10404000B192C192D192CBACDCACC082D1825596F8
:104050008F81988569857A85F8013081333009F43C
:104060004EC030E2F70101900D923A95E1F7F80168
:10407000EF5AFF4F208379968083918381E0D801A6
:1040800014968C93CE0101960E94340D7C01892BED
:1040900009F080CFEB8DFC8D2396ACACBDACCEACE3
:1040A000DFAC2397A686B786C08AD18AEB8DFC8DBC
:1040B000A68AB78AC08ED18EEB8DFC8D8FA998AD64
:1040C000CBACDCACC28ED38EDC012C91233029F436
:1040D000CDACDEACA601448B558BEB8DFC8D20E185
:1040E000238721E0DC0114962C930E9444037C0179
:1040F00010CF0E94B401B2E0EB2EF12C4BCFEC5B61
:10410000FF4FCDACDEAC5601C12CD12C2796ACAE06
:10411000BDAECEAEDFAE2797A192B08230E2F701FE
:1041200001900D923A95E1F7F801EF5AFF4F208385
:10413000799680839183AB013697419350839ECFCC
:10414000EF92FF920F931F93CF93DF93CDB7DEB71C
:10415000C158D1090FB6F894DEBF0FBECDBFE596AA
:104160009FAF8EAFE597E7967FAF6EAFE797CE0133
:104170008B589F4F0E94B90142E0BE016F587F4F9C
:10418000CE018D589F4F0E94AD0E9C01892B79F076
:10419000C901CF57DF4F0FB6F894DEBF0FBECDBFBA
:1041A000DF91CF911F910F91FF90EF900895E396CB
:1041B000EEACFFACE397E996FFAEEEAEE997E5967D
:1041C0006EAD7FADE597E9A6FAA61FA618AA19AAB3
:1041D0001AAACE0189960E94E70A9C01892BC1F692
:1041E00061968FAD6197807A09F0F5C009A51AA58F
:1041F000C158DF4F19830883CF57D040EFA4F8A8E8
:1042000009A91AA9EF96ECAEFDAE0EAF1FAFEF975E
:1042100025960EAD1FAD2597EB961FAF0EAFEB9712
:1042200080E2F801DE01AF5ABF4F01900D928A95EE
:10423000E1F7D8011B96BC91CF57DF4FB883C15827
:10424000D04088E2FE01B996DE01119601900D92F0
:104250008A95E1F7E7966EAD7FADE797CE010196BF
:104260000E94E70A9C01009709F4B8C0049709F07E
:104270008FCFCE0101960E94340D9C01892B09F04D
:1042800087CF8B8D9C8DDC011D9623E1FE01E25AC8
:10429000FF4F01900D922A95E1F7CF57DF4FF8803D
:1042A000C158D040F4FC07C00F2D0062CF57DF4F3C
:1042B0000883C158D040CF57DF4FE880C158D04065
:1042C000DC011B96EC9221E0E996AEADBFADE9971B
:1042D00014962C931497FC01238524FF55C04F811D
:1042E000588569857A85EF96ECACFDAC0EAD1FADB7
:1042F000EF974E155F056007710709F445C0228DE1
:10430000338D40E050E06C91633019F484899589D5
:10431000AC012250310941095109E996EEADFFADDA
:10432000E99784899589A689B7890297A109B10976
:10433000281739074A075B0708F073C0A285B385C1
:104340000E94B42724A535A546A557A57B018C015D
:10435000E20EF31E041F151FA701B80141155105F8
:104360006105710509F45DC0CF010E942C04892B01
:1043700009F054C0E996EEADFFADE997EF5AFF4F53
:1043800080818E3209F450C023964CAD5DAD6EAD88
:104390007FAD2397C158DF4F88819981CF57D04097
:1043A0000E942C04892BD1F585EEEB96EEADFFAD86
:1043B000EB97808381E0C158DF4FA881B981CF5747
:1043C000D04014968C93E9968EAD9FADE9970E94EC
:1043D00044039C01DDCE26E030E0DACE8F81988563
:1043E000A985BA85EF96ECACFDAC0EAD1FADEF978D
:1043F0008E159F05A007B10719F028E030E0C8CE60
:104400004F85588969897A898FA998ADA9ADBAADC8
:10441000481759076A077B0781F72BCF21E030E067
:10442000B7CE22E030E0B4CEA985BA852F81388599
:10443000E996EEADFFADE997E659FF4F2083318352
:10444000E996EEADFFADE9972081233059F4CD0117
:10445000EC59FF4F8083E996EEADFFADE997EB593C
:10446000FF4F908381E0E996AEADBFADE99714961A
:104470008C938ACF20E030E1DC01F9011D92319765
:10448000E9F7FC01F05F20E1DF011D923A95E9F7C1
:10449000749630E2DF011D923A95E9F7B39640E059
:1044A00051E0DF01BA011D9261507040E1F7DC017B
:1044B000A05BBF4F30E5E1E0F1E001900D923A954D
:1044C000E1F7FC01E85CFE4EDF011D922A95E9F759
:1044D000E852F14010821182B4961082B29732E015
:1044E00010823183B39611921082EE5EFE4F1082DD
:1044F00080E090E00E94A828CB010C9433286F92B2
:104500007F928F929F92AF92BF92CF92DF92EF9263
:10451000FF920F931F93CF93DF93CDB7DEB781E167
:1045200092E00E947C28CC5DDF4E8881C452D0414D
:104530008F93CD5DDF4E8881C352D0418F9387E842
:1045400091E09F938F930E946628CE5DDF4E888115
:10455000C252D0418F93CF5DDF4E8881C152D0418E
:104560008F938EE991E09F938F930E946628CB5B97
:10457000DF4E8881C554D0411F928F9382EB91E02A
:104580009F938F930E946628C95BDF4E8881C75432
:10459000D0411F928F93CA5BDF4E8881C654D041B1
:1045A0001F928F9385EC91E09F938F930E946628D2
:1045B0008E010F5E1F4F6E012FEEC21AD20A4E01FE
:1045C0003FED831A3FEE930A0FB6F894DEBF0FBE9D
:1045D000CDBF360180E090EF5C01FE017196AE1A0E
:1045E000BF0A29EEE22E21E0F22EC501860D971DAD
:1045F000F30121913F011F922F939F938F93FF927D
:10460000EF920E9466280F900F900F900F900F90DE
:104610000F906814790449F75801FCEEAF1AFFEEC9
:10462000BF0AE12CF12C9DEF892E91E0992EF50126
:1046300080819181F2E0AF0EB11C9F938F93FF9226
:10464000EF929F928F920E9466282FEFE21AF20A51
:104650000F900F900F900F900F900F9030E1E31696
:10466000F10429F78CE0E82E82E0F82EF801819120
:104670008F011F928F93FF92EF920E9466280F90F6
:104680000F900F900F900C151D0581F780E192E0BF
:104690000E947C28DF91CF911F910F91FF90EF90A6
:1046A000DF90CF90BF90AF909F908F907F906F9052
:1046B00008956F927F928F929F92AF92BF92CF9206
:1046C000DF92EF92FF920F931F93CF93DF93B62E5B
:1046D0006C0131EFC31A3FEED30AF60110822115A7
:1046E00009F457C0FC01E05FFF4E00811181080F03
:1046F000191FF0E44F9F700111244801820E911C94
:10470000C1E07C2EF801A1918F01B0E0A7014B0D13
:10471000511D27E030E0BD01022E02C0759567955E
:104720000A94E2F760FF27C0BA01769567957695FF
:10473000679576956795680F792F711DFB01E95C88
:10474000FF4EA080F42FF7706F2EEA2DF0E0062CBC
:1047500002C0F595E7950A94E2F7E0FF02C0F60182
:104760007082FB01E95CFF4E6C2F01C0660F6A94FA
:10477000EAF7A626A082215031094F5F5F4F2F3FF5
:10478000320749F620E4E20EF11C8016910609F08A
:10479000B9CFFC01E95CFE4E81E08083DF91CF91CF
:1047A0001F910F91FF90EF90DF90CF90BF90AF904F
:1047B0009F908F907F906F900895EF92FF920F934C
:1047C0001F93CF93DF93CDB7DEB72D970FB6F89435
:1047D000DEBF0FBECDBF8C01DC01AE5EBF4E4D9182
:1047E0005D91FC01E40FF51F80812181E22FF82FFC
:1047F0007F01BA016E5F7F4F7E936E93FF70F983E6
:10480000E295EF70EB87EB822E2D2F709F2D80E0CD
:10481000907F8115F0E89F0709F4B4C0F701FF709D
:10482000EC87FD878130F0E89F07B0F4811520E424
:10483000920709F480C008F088C08115E0E29E0765
:1048400009F463C008F0AEC0892B09F4B8C08C85A8
:104850009D858D939D9328C0811530EC930709F4B5
:10486000C9C078F18115F0EE9F0709F4F6C08115F3
:1048700030EF930709F4DEC08115904D09F085C033
:10488000D8013B85A30FB11DB05FF8018981E80F06
:10489000F11DF05F4C916081C8010E945923F8011D
:1048A000E95CFE4E81E080832D960FB6F894DEBF62
:1048B0000FBECDBFDF91CF911F910F91FF90EF9071
:1048C00008958115F0EA9F0709F4ACC0811530EB1B
:1048D000930709F49DC08115904909F056C0211134
:1048E000E3CF9801F9812F0F311D305F8B85080FC1
:1048F000111D105FF9019081F80180819817A1F2D4
:104900004C5F5F4F4D935D93CFCF98012C5C3F4E32
:10491000F901808191E0980F9083080F111D080F15
:10492000111D0C5E1F4EF801608371832C853D853F
:104930002D933D93B9CFE9810E0F111DF801F05F62
:104940008081FB81F813DCCFAFCF811530E6930770
:1049500009F4ABC08115E0E79E0709F49DC08115FD
:10496000904599F498018981280F311D305F9B850E
:10497000090F111D105FF9019081F80180819813D2
:1049800093CFBECF2F3008F497C0FF92EF9285E10E
:1049900092E09F938F930E9466280F900F900F9044
:1049A0000F9082CF8115904381F73981030F111D3C
:1049B000F801F05F80819B81981376CFA1CF8E2D77
:1049C00090E0E0EEEE1609F492C08E3E9105E9F615
:1049D000F801EC5CFF4E808181508083080F111D2F
:1049E000080F111DF801EC5EFF4E808191818D93BF
:1049F0009D935ACF0E942E28F9810F0F111DF801A7
:104A0000F05F9C01307897FD5DC02E2120834CCF54
:104A1000105FF8018081EC85FD85E80FF11DED93B5
:104A2000FD9342CFD801A05FBF4E2C853D852D93CD
:104A30003D933ACFEE2DF0E0E433F1050CF066C083
:104A4000E730F1050CF4A1CF3797ED32F10508F00E
:104A50009CCFE555F44D0C94AE278E2D90E0EEE9F9
:104A6000EE16A1F1813A910509F08FCFF801398155
:104A7000E30FF11DF05F8081080F111DF801E85C64
:104A8000FE4E81E02081211130C0880F991F860FD2
:104A9000971F8D939D9308CF2981020F111DF80157
:104AA000F05F80818E0D8083FFCEF9810F0F111D85
:104AB000F801F05FE082F8CEE22FF0E0E852F44D2A
:104AC0000C94AE272A953FEF23959FCFF8012981BB
:104AD000E20FF11DF05F8081080F111DF801E85C05
:104AE000FE4E81E020812111D0CF80E0CECFF801B1
:104AF000E95CFF4E80E091E0DF019C011D922150B6
:104B00003040E1F7FF5F81E08083CECEE535F105EF
:104B100009F482C1E536F10509F037CFC801805F9D
:104B20009F4E8B839C83DC010D90BC91A02DAD83A7
:104B3000BE83F981EF2FF0E0E9831A82AF014F5F66
:104B40005F4FBD01600F711F40970E944B282D8160
:104B50003E812F5F3F4F89819A81280F391FAB819A
:104B6000BC812D933D93A0CED801A15FBF4EE981BA
:104B70000E0F111DF801F05F808187FB882780F9F7
:104B80008C938081880F80838FCEB801615F7F4EC8
:104B9000C8012B85820F911DAC01505F3981030F35
:104BA000111DD801B05F21E0FA0130814C9143170B
:104BB00008F020E0DB012C93F801F05FDC01B05F2E
:104BC0008C919081891B80836FCED801A15FBF4EED
:104BD000E9810E0F111DF801F05F808181708C93C7
:104BE00080818695808360CEB801615F7F4EF80139
:104BF000B981EB0FF11DAF01505F2B85020F111D25
:104C00009801305F81E0DA019C91D9012C9129173C
:104C100008F080E0DB018C93F05FD801B05F808109
:104C20009C91891B808340CEA801415F5F4EF801B3
:104C3000A981EA0FF11D9F01305FD9018C91BB85DD
:104C40000B0F111DB801705FDB019C91890F992733
:104C5000991F21E091300CF420E0DA012C93F05FF1
:104C6000D801B05F80819C91890F80831DCEF801AF
:104C70008981E80FF11DF05F9B85090F111DD80197
:104C8000B05F80819C91892780830ECEF8012981B5
:104C9000E20FF11DF05F3B85030F111DD801B05FDE
:104CA00080819C9189238083FFCDF801A981EA0F3F
:104CB000F11DF05FBB850B0F111DD801B05F808126
:104CC0009C91892B8083F0CDF8013B85E30FF11D8A
:104CD000F05F80819981090F111DF801F05F8083D9
:104CE000E3CDF8012981E20FF11DF05F2081F80189
:104CF000E05FFF4E0190F081E02DE00FF11F822F69
:104D000090E064E670E00E947827608389E2289F43
:104D1000812D112482958F70922F34E6839F9019F4
:104D200011248DEC989F912D11249695969596952A
:104D30009183289F812D1124869586958695982F9D
:104D4000990F990F890F880F281B2283ADCDD801A9
:104D5000A05FBF4EF9810F0F111DF801F05F208198
:104D600030E0C901880F991F880F991F820F931F88
:104D7000805B9F4F8D939D9397CDD801A05FBF4ED1
:104D80008D919D911297B801615F7F4EE9810E0F61
:104D9000111DA801505FFA012081AC01420F511D85
:104DA00021E0503108F420E0FB012083F801F05F9E
:104DB0002081820F911D8D939D9376CDD801AB5CA0
:104DC000BF4E9981090F111DF801F05F80818C930E
:104DD0006BCDD801AA5CBF4E8981080F111DF80167
:104DE000F05F80818C9360CDF801E85CFE4E90818D
:104DF000911136C031968F5F8031C9F74D935D9325
:104E000053CDF8012981E20FF11DF05FD801AA5CB2
:104E1000BF4E8C91808348CDF801E05FFF4EEB835D
:104E2000FC83208131812D833E839981892F90E0FD
:104E300089831A82AC014F5F5F4FB801705FC9016F
:104E4000800F911F0E944B28AD81BE811196E98190
:104E5000FA81AE0FBF1FEB81FC81A083B18324CD0B
:104E60003981030F111DF801F05F80831DCDCDB78F
:104E7000DEB7C954D5410FB6F894DEBF0FBECDBF23
:104E80008E01065B1E4E80E094E0F8019C011192B9
:104E900021503040E1F7CE0101960E943A220E9453
:104EA0005700C8010E945D013FEF81EE94E0315050
:104EB00080409040E1F700C00000CE0101960E94C2
:104EC000DD23EFE3FCE93197F1F700C00000F5CFF7
:104ED000DB018F939F930E94B427BF91AF91A29F54
:104EE000800D911DA39F900DB29F900D11240895E8
:104EF00097FB072E16F4009407D077FD09D00E9487
:104F0000CE2707FC05D03EF4909581959F4F0895DC
:104F1000709561957F4F0895A1E21A2EAA1BBB1BC5
:104F2000FD010DC0AA1FBB1FEE1FFF1FA217B30775
:104F3000E407F50720F0A21BB30BE40BF50B661F8B
:104F4000771F881F991F1A9469F76095709580954F
:104F500090959B01AC01BD01CF010895EE0FFF1F9D
:104F60000590F491E02D09940E94BF27A59F900D14
:104F7000B49F900DA49F800D911D11240895A29FB0
:104F8000B001B39FC001A39F700D811D1124911D1D
:104F9000B29F700D811D1124911D0895AA1BBB1B8A
:104FA00051E107C0AA1FBB1FA617B70710F0A61B29
:104FB000B70B881F991F5A95A9F780959095BC014A
:104FC000CD0108958F929F92AF92BF92CF92DF92C0
:104FD000EF92FF92CF93DF93EC01688179818A8110
:104FE0009B81611571058105910521F464E279EDDC
:104FF0008BE597E02DE133EF41E050E00E944B2B31
:1050000049015A019B01AC01A7EAB1E40E94B4270F
:105010006B017C01ACEEB4EFA50194010E946D2BF5
:10502000DC01CB018C0D9D1DAE1DBF1DB7FF03C064
:105030000197A109B04888839983AA83BB839F778E
:10504000DF91CF91FF90EF90DF90CF90BF90AF9026
:105050009F908F9008950E94E227089581E591E046
:105060000E94E2270895A0E0B0E080935101909360
:105070005201A0935301B09354010895FB01DC0148
:1050800004C08D910190801921F441505040C8F71F
:10509000881B990B0895FB01DC0102C001900D9261
:1050A00041505040D8F70895DC0101C06D93415044
:1050B0005040E0F70895FC018191861721F0882384
:1050C000D9F7992708953197CF010895A0E0B0E06E
:1050D000ECE6F8E20C94822BAE014B5F5F4FFA01D5
:1050E00061917191AF0180913202909133020E94DF
:1050F000BB28E2E00C949E2B0F931F93CF93DF937A
:10510000E0913202F0913302238100E010E021FDB2
:105110000EC00FEF1FEFC801DF91CF911F910F91CC
:1051200008950995892B11F00FEF1FEFCE01EC01C7
:1051300089916091320270913302DB011896ED91F2
:10514000FC918111EECF8AE00995892B21F3E1CF03
:10515000FC012FB7F894609136027091370280916C
:105160003802909139022FBF309721F0608371830C
:10517000828393830895ABE0B0E0E1ECF8E20C9415
:10518000732B6C017B018A01FC01178216828381DB
:1051900081FFDAC19AE0492EF6012381F70123FD50
:1051A000859123FF81917F01811509F41FC185320B
:1051B00039F423FD959123FF91917F01953229F4D4
:1051C000B60190E00E94BD2AE7CF30E0612C512C5F
:1051D000712CF0E27F1640F59B32D9F058F49032F2
:1051E000D1F09332F1F09E3299F576FCFFC06894CD
:1051F00076F806C09D3291F09033C1F4689470F84F
:10520000F70123FD959123FF91917F019111E1CF4A
:1052100029C0689471F8689472F8F2CF689473F8B2
:10522000EFCF689474F8ECCF77FC1CC080ED890F49
:105230008A30C8F676FE05C0649C800D1124682E65
:10524000DFCF549C800D1124582E689475F8D8CF68
:105250009C3619F4689477F8D3CF9C3409F44BC08A
:10526000983671F2892F8F7D8554833008F445C0BC
:10527000933609F466C0933709F469C0933509F48D
:1052800075C0943619F0993609F09FC0F80177FE81
:1052900095C061917191819191918F01272D2F7608
:1052A000722E97FF09C090958095709561957F4FFC
:1052B0008F4F9F4F689477F82AE030E0AE014F5F40
:1052C0005F4F5A010E94ED2A8A19A82E76FEC5C0AA
:1052D000872D8E7FA61408F0BFC074FE12C172FC29
:1052E00006C1F72DFE7E7F2EB62C872D8678811580
:1052F00009F4C0C001C131E083CF3115F9F0085F76
:105300001F4F8FE3898388248394912CAE014F5FD4
:105310005F4F5A01E89477F873FC03C08514910439
:10532000B0F181149104D1F5511409F435CFB601CF
:1053300080E290E00E94BD2A5A94F6CF0C5F1F4F86
:10534000E0CFF801808189830E5F1F4FDCCFF80129
:10535000A190B1908F01662D70E076FC02C06FEFD6
:105360007FEFC5010E94B22A4C01D4CFF801A19071
:10537000B1908F01662D70E076FC02C06FEF7FEF79
:10538000C5010E94A72A4C01689477F8C5CFB601E1
:1053900080E290E00E94BD2A5A94C0CFF50177FCCC
:1053A000859177FE81915F01B60190E00E94BD2A50
:1053B00051105A94F1E08F1A9108B3CF6191719115
:1053C000072E000C880B990B68CF372CE89434F823
:1053D0002AE030E0953739F1572D597F352E903737
:1053E00099F058F49835A9F09F36D9F0F6018681E6
:1053F00097812B96E1E10C948F2B9837B9F774FCC9
:1054000005C020E130E00FC0689434F8689432F8A9
:10541000F8CF74FE03C0872D8660382E20E132E07D
:1054200002C028E030E0F80137FE11C061917191AF
:10543000819191918F01FE0131965F01AF010E9430
:10544000ED2A8A19A82E732CE89477F83FCF619142
:10545000719180E090E0EECF782EBA2C74FE45CFAB
:10546000FE01EA0DF11D8081803309F043C0272D34
:10547000297E722E73FC0EC070FE4FC06A2CB514CC
:1054800018F4650C6B18B52C852D8B195B1408F47A
:1054900080E0B80EB51408F042C05B1874FE41C03D
:1054A000B60180E390E00E94BD2A72FE09C088E543
:1054B00090E071FC02C088E790E0B6010E94BD2A2E
:1054C000A614D8F1AA94B12C4FEFA41AB40ACE01B5
:1054D00001963C01A80EB91EF50182915F01B6014B
:1054E00090E00E94BD2A6A147B04B1F71DCFB62C50
:1054F000782EB6CF72FC02C0B394BCCFB394B394F1
:10550000B9CFB62C782EF1CEB60180E290E00E94A1
:10551000BD2A33943514C0F3B7CF3B2CFBCF512CAD
:10552000BDCF872D8678811559F280E271FC8BE220
:1055300077FC8DE2B60190E0C1CFB60180E390E048
:105540000E94BD2A6A94BCCF8FEF9FEF52CFFC011F
:105550000590615070400110D8F7809590958E0F9E
:105560009F1F0895FC016150704001900110D8F711
:10557000809590958E0F9F1F08950F931F93CF9343
:10558000DF93182F092FEB018B8181FD09C01FEFDD
:105590000FEF812F902FDF91CF911F910F910895E1
:1055A00082FF14C02E813F818C819D81281739078D
:1055B0003CF4E881F981CF010196998388831083B7
:1055C0008E819F8101969F838E83E3CFE885F98545
:1055D000812F0995892BA1F3DACFFA01AA27283068
:1055E00051F1203181F1E8946F936E7F6E5F7F4FB0
:1055F0008F4F9F4FAF4FB1E03ED0B4E03CD0670F2C
:10560000781F891F9A1FA11D680F791F8A1F911D7E
:10561000A11D6A0F711D811D911DA11D20D009F4CE
:1056200068943F912AE0269F11243019305D319310
:10563000DEF6CF010895462F4770405D4193B3E0F9
:105640000FD0C9F7F6CF462F4F70405D4A3318F0A0
:10565000495D31FD4052419302D0A9F7EACFB4E051
:10566000A6959795879577956795BA95C9F7009709
:105670006105710508959B01AC010A2E06945795AA
:10568000479537952795BA95C9F7620F731F841F01
:10569000951FA01D0895052E97FB1EF400940E94EF
:1056A000622B57FD07D00E948C2707FC03D04EF4D5
:1056B0000C94622B50954095309521953F4F4F4F5C
:1056C0005F4F089590958095709561957F4F8F4FAE
:1056D0009F4F0895B7FF0C94B4270E94B427821BF4
:1056E000930B08952F923F924F925F926F927F9209
:1056F0008F929F92AF92BF92CF92DF92EF92FF92E2
:105700000F931F93CF93DF93CDB7DEB7CA1BDB0B8D
:105710000FB6F894DEBF0FBECDBF09942A88398832
:1057200048885F846E847D848C849B84AA84B98439
:10573000C884DF80EE80FD800C811B81AA81B98145
:10574000CE0FD11D0FB6F894DEBF0FBECDBFED0159
:105750000895F894FFCF0127C524C524F426C52455
:10576000C524C524C524C524C524C524C524C524F1
:10577000C524E926C524C524DE26C524C524C524A0
:10578000C524C524BD26C524C524C524C524C524D7
:10579000C524C524C524C524C524A726C524C524DD
:1057A000C524C524C524C524C524C524C524712603
:1057B00064265526462637261426F425E525C525D4
:0E57C000C524C524C524C524C524C524B4258C
:1057CE0001F0909090F02060202070F010F080F0AA
:1057DE00F010F010F09090F01010F080F010F0F04B
:1057EE0080F090F0F010204040F090F090F0F090AB
:1057FE00F010F0F090F09090E090E090E0F080806B
:10580E0080F0E0909090E0F080F080F0F080F080FA
:10581E008001000000AED580A83FD300408D14203B
:10582E0000A1C8DA12817FD9F1DB40A4A62EAF2ADF
:10583E002B2C3A3B3C3D3E5B5D7C223F7F0046413C
:10584E005433322020200050726F6772616D2043F6
:10585E006F756E7465723A20307825580A00496E5D
:10586E006465782052656769737465723A202564A1
:10587E000A00537461636B20506F696E7465723ADF
:10588E002025640A00536F756E642074696D65720D
:10589E003A20307825580D44656C61792074696D15
:1058AE0065723A20307825580052656769737465C1
:1058BE0072205625643A20307825580A00537461B8
:1058CE00636B25643A20307825580A00202558004D
:1058DE000A2D2D2D00556E6B6E6F776E206F7063D7
:0C58EE006F64653A20307825580A0000ED
:00000001FF
